:020000040000FA
:0400000026EF00F0F7
:100008005B82FACF03F0FBCF04F0F2AC0EEF00F006
:1000180010EF00F020EF00F09DA015EF00F017EFB3
:1000280000F020EF00F09EA01CEF00F01EEF00F0A3
:1000380020EF00F083ECC3F004C0FBFF03C0FAFF1D
:080048005B92110007EFBBF011
:10FD8C00000000000080DE280080C84D0000A7762F
:10FD9C000000349E008012C700809FEE00007E178A
:10FDAC0001805C400180E9670100C890010055B8F2
:10FDBC0001000601050205030604050505060607F4
:10FDCC0005080609050A050B050C060D050E050FA1
:10FDDC000510061105120513061405150616051750
:10FDEC0005414447484E53555C5F6065696A7277BC
:10FDFC00787B7E1F1E1F1E1F1F1E1F1E1F1F1DFF19
:10FE0C00FFFFFFFFFF474D54003C25643E25642057
:10FE1C0025642D252E32642D252E326454252E3248
:10FE2C00643A252E32643A252E32645A2025642EEB
:10FE3C0025642E25642E256420257320257320250A
:10FE4C00732025735B25735D0D0A000A0A537461D8
:10FE5C007274696E67205379736C6F6720617420BC
:10FE6C00256C750A0069636D702077726F6E672060
:10FE7C00636B736D203A202578004541506F6C5FA1
:10FE8C005041434B45545F4641494C55524500380F
:10FE9C0030322E33206C656E6774682030782530D4
:10FEAC00346C5800444553545F49505F4E4F545F77
:10FEBC004D41544348454400495056345F434845EE
:10FECC00434B53554D5F4641494C530049434D50AC
:10FEDC005F434845434B53554D5F4641494C530096
:10FEEC004152505F49505F4E4F545F4D415443480F
:10FEFC00454400504F52545F4E4F545F4156414958
:10FF0C004C41424C45005443505F434845434B538E
:10FF1C00554D5F4641494C53005544505F4348454D
:10FF2C00434B53554D5F4641494C53003830322EAC
:10FF3C003320747970652030782530346C58005437
:10FF4C00585F4C4F4749435F4E4F545F49444C45B3
:10FF5C000054252E32643A252E32643A252E326412
:10FF6C005A0049505F57524F4E475F5645525349BE
:10FF7C004F4E004C494E4B5F4E4F545F464F554EC3
:10FF8C0044004D41435F4E4F545F464F554E440025
:10FF9C002025642E25642E25642E25640025642DD1
:10FFAC00252E32642D252E326400444D415F544978
:10FFBC004D454F5554004255464645525F425553A8
:10FFCC0059003C25643E256420005355434345535A
:10FFDC0053004552524F52002025735B002025736D
:10FFEC00006C64006C69006C75006C78005D002D11
:04FFFC00002E0000D3
:020000040001F9
:10000000000E0001E06F20EE2DF05750D926585019
:10001000DA22DF50E46F20EE2EF05750D9265850E8
:10002000DA22DF50E36F57C0D9FF58C0DAFFDECFC6
:1000300005F0DDCF06F061ECC5F00009D8B423EF80
:1000400080F025EF80F013EF8DF0090E0001E36FD3
:10005000FEECC5F013EF8DF020EE02F05750D926DC
:100060005850DA22D7C1DEFFD8C1DEFFD9C1DEFF8A
:10007000DAC1DEFF20EE06F05750D9265850DA22BA
:10008000E8C1DEFFE9C1DDFF20EE14F05750D926AC
:100090005850DA22DE6ADE6ADE6ADD6A21EEECF0B2
:1000A00010EE08F05750E1265850E222DECFE6FF6E
:1000B000DECFE6FFDECFE6FFDECFE6FF20EE08F084
:1000C0005750D9265850DA22DECFCBF0DECFCCF015
:1000D000DECFCDF0DECFCEF0010ECB25CF6F000E00
:1000E000CC21D06F000ECD21D16F000ECE21D26F6A
:1000F00020EE0CF05750D9265850DA22CFC0DEFF40
:10010000D0C0DEFFD1C0DEFFD2C0DEFF0101F6515C
:100110000001CC6FCB6B21EEF6F0DECFCDF0DDCF62
:10012000CEF0CEC0CDF0CE6BFF0ECD17000ECE17A9
:10013000CB51CD13CC51CE1320EE18F05750D92609
:100140005850DA22CDC0DEFFCEC0DDFF20EE1CF01D
:100150005750D9265850DA22FCC1DEFFFDC1DDFF21
:1001600020EE38F05750D9265850DA22120EDF6EA2
:1001700020EE33F05750D9265850DA22020EDE6EA8
:10018000000EDD6E20EE35F05750D9265850DA2299
:10019000020EDE6E000EDD6E20EE37F05750D926CF
:1001A0005850DA22030EDF6E57C07DF058C07EF043
:1001B000BBEC95F0030E0001E46F53EF8DF0000EE1
:1001C0000001E46F57C005F058C006F0FDECB3F035
:1001D00053EF8DF0E351CB6FCC6BCC51000AD8B408
:1001E000F4EF80F053EF8DF0CB51000AD8B4DFEF7D
:1001F00080F0030AD8B42CEF80F053EF8DF053EF6A
:100200008DF021EEECF010EE08F05750E12658503A
:10021000E222DECFE6FFDECFE6FFDECFE6FFDECF77
:10022000E6FF010E0101EC250001CB6F000E01017C
:10023000ED210001CC6F000E0101EE210001CD6F18
:10024000000E0101EF210001CE6F20EE0CF057509F
:10025000D9265850DA22CBC0DEFFCCC0DEFFCDC09D
:10026000DEFFCEC0DEFF0101F6510001CC6FCB6B8B
:1002700021EEF6F0DECFCDF0DDCFCEF0CEC0CDF06A
:10028000CE6BFF0ECD17000ECE17CB51CD13CC5138
:10029000CE1320EE18F05750D9265850DA22CDC090
:1002A000DEFFCEC0DDFF20EE1CF05750D92658509F
:1002B000DA22FCC1DEFFFDC1DDFF20EE33F0575036
:1002C000D9265850DA22020EDE6E000EDD6E20EEC8
:1002D00035F05750D9265850DA22020EDE6E000E45
:1002E000DD6E20EE37F05750D9265850DA22030E33
:1002F000DF6E20EE38F05750D9265850DA22120E11
:10030000DF6ED4EF80F020EE33F05750D9265850EE
:10031000DA22000EDE6E000EDD6E20EE10F0575079
:10032000D9265850DA22DECFCBF0DECFCCF0DECFAC
:10033000CDF0DECFCEF0010ECB25CF6F000ECC215D
:10034000D06F000ECD21D16F000ECE21D26F0101F2
:10035000F0510001CF1913E10101F1510001D01951
:100360000EE10101F2510001D11909E10101F3513E
:100370000001D219D8A4BFEF81F0C1EF81F06AEF7C
:1003800082F020EE10F05750D9265850DA22DECFF6
:10039000CBF0DECFCCF0DECFCDF0DECFCEF0010E55
:1003A000CB25CF6F000ECC21D06F000ECD21D16FA9
:1003B000000ECE21D26F20EE10F05750D9265850A3
:1003C000DA22CFC0DEFFD0C0DEFFD1C0DEFFD2C058
:1003D000DEFF20EE38F05750D9265850DA22100EA2
:1003E000DF6E21EEECF010EE08F05750E126585089
:1003F000E222DECFE6FFDECFE6FFDECFE6FFDECF96
:10040000E6FF010E0101EC250001CB6F000E01019A
:10041000ED210001CC6F000E0101EE210001CD6F36
:10042000000E0101EF210001CE6F20EE0CF05750BD
:10043000D9265850DA22CBC0DEFFCCC0DEFFCDC0BB
:10044000DEFFCEC0DEFF0101F6510001CC6FCB6BA9
:1004500021EEF6F0DECFCDF0DDCFCEF0CEC0CDF088
:10046000CE6BFF0ECD17000ECE17CB51CD13CC5156
:10047000CE1320EE18F05750D9265850DA22CDC0AE
:10048000DEFFCEC0DDFF20EE1CF05750D9265850BD
:10049000DA22FCC1DEFFFDC1DDFF010ED36F57C0C4
:1004A0007DF058C07EF0BBEC95F00001D319D8A4C4
:1004B0005CEF82F05EEF82F053EF8DF0040EE46F9C
:1004C00020EE39F05750D9265850DA22030EDF6E4D
:1004D00053EF8DF021EEF0F010EE10F05750E126C2
:1004E0005850E222DECFE6FFDECFE6FFDECFE6FFAA
:1004F000DECFE6FF20EE38F05750D9265850DA22EA
:10050000140EDF6E010ED46F57C07DF058C07EF020
:10051000BBEC95F00001D419D8A491EF82F093EFD1
:1005200082F053EF8DF0DFEF80F020EE33F0575084
:10053000D9265850DA22000EDE6E000EDD6E20EE57
:1005400010F05750D9265850DA22DECFCBF0DECF4C
:10055000CCF0DECFCDF0DECFCEF0010ECB25CF6FCD
:10056000000ECC21D06F000ECD21D16F000ECE2118
:10057000D26F0101F0510001CF1913E10101F151D6
:100580000001D0190EE10101F2510001D11909E178
:100590000101F3510001D219D8A4D1EF82F0D3EFB9
:1005A00082F06BEF83F020EE10F05750D9265850B0
:1005B000DA22DECFCBF0DECFCCF0DECFCDF0DECF57
:1005C000CEF0010ECB25CF6F000ECC21D06F000EE8
:1005D000CD21D16F000ECE21D26F20EE10F05750FA
:1005E000D9265850DA22CFC0DEFFD0C0DEFFD1C0FE
:1005F000DEFFD2C0DEFF20EE38F05750D92658502B
:10060000DA22100EDF6E21EEECF010EE08F05750FB
:10061000E1265850E222DECFE6FFDECFE6FFDECF56
:10062000E6FFDECFE6FF010E0101EC250001CB6FF6
:10063000000E0101ED210001CC6F000E0101EE2141
:100640000001CD6F000E0101EF210001CE6F20EE01
:100650000CF05750D9265850DA22CBC0DEFFCCC060
:10066000DEFFCDC0DEFFCEC0DEFF0101F65100018E
:10067000CC6FCB6B21EEF6F0DECFCDF0DDCFCEF040
:10068000CEC0CDF0CE6BFF0ECD17000ECE17CB51E6
:10069000CD13CC51CE1320EE18F05750D926585018
:1006A000DA22CDC0DEFFCEC0DDFF20EE1CF05750B9
:1006B000D9265850DA22FCC1DEFFFDC1DDFF040E51
:1006C000E46F20EE39F05750D9265850DA22030E45
:1006D000DF6E53EF8DF021EEF0F010EE10F057507A
:1006E000E1265850E222DECFE6FFDECFE6FFDECF86
:1006F000E6FFDECFE6FF20EE38F05750D9265850FF
:10070000DA22040EDF6E010ED56F57C07DF058C09F
:100710007EF0BBEC95F00001D519D8A492EF83F0E0
:1007200094EF83F053EF8DF0DFEF80F020EE37F0A1
:100730005750D9265850DA22DF50D8B4A2EF83F0B0
:10074000A4EF83F0DDEF83F0010ED66F57C07DF08C
:1007500058C07EF0BBEC95F00001D619D8A4B3EFD9
:1007600083F0B5EF83F053EF8DF020EE38F0575063
:10077000D9265850DA22DFA4C0EF83F0C2EF83F00D
:10078000C4EF83F0DFEF80F020EE38F05750D92629
:100790005850DA22DFA8CFEF83F0D1EF83F0FFEFDC
:1007A00080F0040EE46F20EE39F05750D9265850EF
:1007B000DA22030EDF6E53EF8DF020EE38F0575043
:1007C000D9265850DA22040EDF6E010ED76F57C0BB
:1007D0007DF058C07EF0BBEC95F00001D719D8A48D
:1007E000F4EF83F0F6EF83F053EF8DF0DFEF80F05E
:1007F000E351CB6FCC6BCC51000AD8B402EF84F03C
:1008000053EF8DF0CB51000AD8B4DFEF80F0030A2C
:10081000D8B401EF81F0070AD8B495EF82F0010A4D
:10082000D8B483EF81F00C0AD8B4DFEF80F0030A6C
:10083000D8B4DFEF80F0060AD8B496EF83F053EF18
:100840008DF057C0D9FF58C0DAFF0101EA51DE1818
:1008500007E1EB51DE18D8A430EF84F032EF84F0DA
:1008600053EF8DF020EE33F05750D9265850DA224E
:10087000000EDE6E000EDD6E20EE02F05750D9261F
:100880005850DA22D751DE180DE1D851DE180AE1AE
:10089000D951DE1807E1DA51DE18D8A452EF84F0FE
:1008A00054EF84F09DEF84F020EE06F05750D926E7
:1008B0005850DA22E851DE1807E1E951DE18D8A4D1
:1008C00064EF84F066EF84F09DEF84F020EE10F08A
:1008D0005750D9265850DA22DECFCBF0DECFCCF0FD
:1008E000DECFCDF0DECFCEF0010E0001CB25CF6FF5
:1008F000000ECC21D06F000ECD21D16F000ECE2185
:10090000D26F0101F0510001CF1913E10101F15142
:100910000001D0190EE10101F2510001D11909E1E4
:100920000101F3510001D219D8A499EF84F09BEF93
:1009300084F09DEF84F0040EE46F20EE39F0575000
:10094000D9265850DA22030EDF6E53EF8DF020EED9
:1009500002F05750D9265850DA220101D751DE183B
:100960000DE1D851DE180AE1D951DE1807E1DA515C
:10097000DE18D8A4BEEF84F0C0EF84F053EF8DF002
:1009800020EE06F05750D9265850DA22E851DE18EA
:1009900007E1E951DE18D8A4D0EF84F0D2EF84F05B
:1009A00053EF8DF020EE0CF05750D9265850DA2234
:1009B000EC51DE180DE1ED51DE180AE1EE51DE18C2
:1009C00007E1EF51DE18D8A4E8EF84F0EAEF84F0F5
:1009D00053EF8DF020EE10F05750D9265850DA2200
:1009E000DECFCBF0DECFCCF0DECFCDF0DECFCEF061
:1009F000010E0001CB25CF6F000ECC21D06F000E71
:100A0000CD21D16F000ECE21D26F0101F051000136
:100A1000CF1913E10101F1510001D0190EE10101DB
:100A2000F2510001D11909E10101F3510001D2197C
:100A3000D8A41DEF85F01FEF85F053EF8DF020EE69
:100A400010F05750D9265850DA22DECFCBF0DECF47
:100A5000CCF0DECFCDF0DECFCEF0010ECB25CF6FC8
:100A6000000ECC21D06F000ECD21D16F000ECE2113
:100A7000D26F20EE10F05750D9265850DA22CFC04E
:100A8000DEFFD0C0DEFFD1C0DEFFD2C0DEFF20EE31
:100A900033F05750D9265850DA22000EDE6E000E81
:100AA000DD6E040EE46F20EE39F05750D926585011
:100AB000DA22030EDF6E53EF8DF020EE33F0575045
:100AC000D9265850DA22000EDE6E000EDD6E20EEC2
:100AD00038F05750D9265850DA22010EDF6E20EE3A
:100AE00033F05750D9265850DA22020EDE6E000E2F
:100AF000DD6E20EE35F05750D9265850DA22020E1E
:100B0000DE6E000EDD6E20EE37F05750D9265850BD
:100B1000DA22050EDF6E050EE46F57C07DF058C077
:100B20007EF0BBEC95F053EF8DF057C0D9FF58C065
:100B3000DAFF0101EA51DE1807E1EB51DE18D8A413
:100B4000A4EF85F0A6EF85F053EF8DF020EE0CF0CA
:100B50005750D9265850DA22EC51DE180DE1ED51EC
:100B6000DE180AE1EE51DE1807E1EF51DE18D8A4D5
:100B7000BCEF85F0BEEF85F053EF8DF020EE02F074
:100B80005750D9265850DA22DE6ADE6ADE6ADD6AFC
:100B900020EE06F05750D9265850DA22000EDE6EAD
:100BA000000EDD6E20EE10F05750D9265850DA2294
:100BB000DE6ADE6ADE6ADD6A20EE14F05750D9265E
:100BC0005850DA22DE6ADE6ADE6ADD6A20EE08F05C
:100BD0005750D9265850DA22DE6ADE6ADE6ADD6AAC
:100BE00020EE0CF05750D9265850DA22DE6ADE6A21
:100BF000DE6ADD6A20EE18F05750D9265850DA2206
:100C0000000EDE6E000EDD6E20EE1CF05750D92671
:100C10005850DA22B40EDE6E050EDD6E010E0001B4
:100C2000E46F53EF8DF020EE37F05750D92658502F
:100C3000DA22DF50D8B41FEF86F021EF86F023EFE1
:100C400086F08DEF85F020EE38F05750D9265850B9
:100C5000DA22040EDF6E010ED86F57C07DF058C047
:100C60007EF0BBEC95F00001D819D8A43AEF86F0DD
:100C70003CEF86F053EF8DF020EE02F05750D9266E
:100C80005850DA22DE6ADE6ADE6ADD6A20EE06F09D
:100C90005750D9265850DA22000EDE6E000EDD6E57
:100CA00020EE10F05750D9265850DA22DE6ADE6A5C
:100CB000DE6ADD6A20EE14F05750D9265850DA2249
:100CC000DE6ADE6ADE6ADD6A20EE08F05750D92659
:100CD0005850DA22DE6ADE6ADE6ADD6A20EE0CF047
:100CE0005750D9265850DA22DE6ADE6ADE6ADD6A9B
:100CF00020EE18F05750D9265850DA22000EDE6E3A
:100D0000000EDD6E20EE1CF05750D9265850DA2226
:100D1000B40EDE6E050EDD6E0EEF86F0E351CB6F86
:100D2000CC6BCC51000AD8B498EF86F053EF8DF01D
:100D3000CB51000AD8B45DEF85F0040AD8B4A7EF10
:100D400084F0010AD8B421EF84F00C0AD8B495EFEE
:100D500085F0030AD8B495EF85F0060AD8B413EFEE
:100D600086F053EF8DF020EE02F05750D926585000
:100D7000DA220101D751DE180DE1D851DE180AE15F
:100D8000D951DE1807E1DA51DE18D8A4CAEF86F08F
:100D9000CCEF86F053EF8DF020EE0CF05750D926B3
:100DA0005850DA22EC51DE180DE1ED51DE180AE15F
:100DB000EE51DE1807E1EF51DE18D8A4E2EF86F01D
:100DC000E4EF86F053EF8DF020EE14F05750D92663
:100DD0005850DA22F051DE5CF151DE58F251DE5803
:100DE000F351DE58D8B0F7EF86F0F9EF86F053EF05
:100DF0008DF020EE10F05750D9265850DA22DECF71
:100E0000CBF0DECFCCF0DECFCDF0DECFCEF0010EDA
:100E10000001CB25CF6F000ECC21D06F000ECD216D
:100E2000D16F000ECE21D26F0101F0510001CF5DD4
:100E30000101F1510001D0590101F2510001D159D4
:100E40000101F3510001D259D8A029EF87F02BEF0F
:100E500087F0FFEF80F020EE10F05750D926585061
:100E6000DA22DECFCBF0DDCFCCF00101F051000172
:100E7000CB5DE16F0101F1510001CC59E26F20EE31
:100E800025F05750D9265850DA22DECFCBF0DDCFEF
:100E9000CCF0E151CB5FE251CC5B20EE25F0575016
:100EA000D9265850DA22CBC0DEFFCCC0DDFF20EEC1
:100EB00027F05750D9265850DA22DECFCBF0DDCFBD
:100EC000CCF0E151CB27E251CC2320EE27F0575054
:100ED000D9265850DA22CBC0DEFFCCC0DDFF21EE90
:100EE000F0F0FF0EDE24CB6FFF0EDE20CC6FFF0E86
:100EF000DE20CD6FFF0EDE20CE6F20EE14F05750B7
:100F0000D9265850DA22CBC0DEFFCCC0DEFFCDC0E0
:100F1000DEFFCEC0DEFF21EEF0F010EE10F05750F5
:100F2000E1265850E222DECFE6FFDECFE6FFDECF3D
:100F3000E6FFDECFE6FF0101DD51DE11D8A4A3EF0D
:100F400087F0A5EF87F0B3EF87F020EE10F0575051
:100F5000D9265850DA22DECF58F2DECF59F2DECF52
:100F60005AF2DECF5BF220EE27F05750D9265850C8
:100F7000DA22DE50DE10D8A4C0EF87F0C2EF87F08F
:100F8000E5EF87F020EE29F05750D9265850DA22A5
:100F9000020EDE18D8A4CFEF87F0D1EF87F062EF12
:100FA00088F020EE29F05750D9265850DA22000E4A
:100FB000DF6E20EE33F05750D9265850DA22000E5B
:100FC000DE6E000EDD6E62EF88F0DD51DE11D8B40A
:100FD000ECEF87F0EEEF87F012EF88F020EE25F0CF
:100FE0005750D9265850DA2280C2DEFF81C2DDFF79
:100FF00020EE2AF05750D9265850DA22DDC1DEFF04
:10100000DEC1DDFF20EE10F05750D9265850DA220D
:1010100058C2DEFF59C2DEFF5AC2DEFF5BC2DEFFEE
:1010200022EF88F020EE27F05750D9265850DA22C8
:1010300010EE2AF05750E1265850E222DECFE6FFAC
:10104000DDCFE5FF20EE35F05750D9265850DA2293
:10105000020EDE6E000EDD6E20EE37F05750D92600
:101060005850DA22050EDF6E57C07DF058C07EF072
:10107000BBEC95F00101DD51DE11D8B442EF88F0F0
:1010800044EF88F062EF88F0020154510101F01939
:1010900015E1020155510101F11910E1020156510A
:1010A0000101F2190BE1020157510101F319D8B402
:1010B0005CEF88F05EEF88F062EF88F0000EDE6F84
:1010C000000EDD6FDF51E011D8B469EF88F06BEFEF
:1010D00088F0FFEF80F021EEECF010EE08F05750B2
:1010E000E1265850E222DECFE6FFDECFE6FFDECF7C
:1010F000E6FFDECFE6FFDFC1BEF0E0C1BFF019ECD6
:10110000B0F053EF8DF020EE38F05750D9265850FC
:10111000DA22110EDF6E050EE46F20EE33F0575029
:10112000D9265850DA22000EDE6E000EDD6E20EE5B
:1011300033F05750D9265850DA22020EDE6E000ED8
:10114000DD6E20EE35F05750D9265850DA22020EC7
:10115000DE6E000EDD6E20EE37F05750D926585067
:10116000DA22050EDF6E8DEF85F020EE02F057508B
:10117000D9265850DA220101D751DE180DE1D85195
:10118000DE180AE1D951DE1807E1DA51DE18D8A4D9
:10119000CCEF88F0CEEF88F053EF8DF020EE0CF01E
:1011A0005750D9265850DA22EC51DE180DE1ED5196
:1011B000DE180AE1EE51DE1807E1EF51DE18D8A47F
:1011C000E4EF88F0E6EF88F053EF8DF020EE2AF0A0
:1011D0005750D9265850DA22000EDE6E000EDD6E12
:1011E00021EEF0F010EE10F05750E1265850E222B8
:1011F000DECFE6FFDECFE6FFDECFE6FFDECFE6FFA7
:1012000020EE0CF05750D9265850DA22DECFCBF022
:10121000DECFCCF0DECFCDF0DECFCEF0010E000180
:10122000CB25CF6F000ECC21D06F000ECD21D16F1A
:10123000000ECE21D26F20EE0CF05750D926585018
:10124000DA22CFC0DEFFD0C0DEFFD1C0DEFFD2C0C9
:10125000DEFF0101DF51E011D8B431EF89F033EF47
:1012600089F049EF89F021EEECF010EE08F05750CC
:10127000E1265850E222DECFE6FFDECFE6FFDECFEA
:10128000E6FFDECFE6FFDFC1BEF0E0C1BFF019EC44
:10129000B0F020EE39F05750D9265850DA22040E1B
:1012A000DF6E20EE33F05750D9265850DA22020E66
:1012B000DE6E000EDD6E20EE35F05750D926585008
:1012C000DA22020EDE6E000EDD6E20EE37F0575091
:1012D000D9265850DA22050EDF6E20EE38F057502E
:1012E000D9265850DA22110EDF6E090E0001E46F84
:1012F0008DEF85F020EE38F05750D9265850DA227D
:10130000040EDF6E57C07DF058C07EF0BBEC95F048
:10131000DFEF80F020EE37F05750D9265850DA2210
:10132000DF50D8B496EF89F098EF89F09CEF89F000
:1013300087ECBFF053EF8DF020EE38F05750D926F0
:101340005850DA22040EDF6E010ED96F57C07DF0BF
:1013500058C07EF0BBEC95F00001D919D8A4B3EFCA
:1013600089F0B5EF89F053EF8DF0DFEF80F0E351B6
:10137000CB6FCC6BCC51000AD8B4C1EF89F053EFDE
:101380008DF0CB51000AD8B483EF88F0040AD8B4AA
:10139000B3EF86F0020AD8B453EF8DF0010AD8B447
:1013A000B5EF88F00E0AD8B47AEF89F0030AD8B402
:1013B0007AEF89F0060AD8B48AEF89F053EF8DF0FE
:1013C00020EE38F05750D9265850DA22100EDF6E32
:1013D00020EE0CF05750D9265850DA220101EC517A
:1013E000DE180DE1ED51DE180AE1EE51DE1807E1DD
:1013F000EF51DE18D8A4FFEF89F001EF8AF053EF28
:101400008DF020EE2AF05750D9265850DA22000EDF
:10141000DE6E000EDD6E20EE10F05750D9265850CB
:10142000DA22DECFCBF0DECFCCF0DECFCDF0DECFD8
:10143000CEF0010E0001CB25CF6F000ECC21D06F76
:10144000000ECD21D16F000ECE21D26F20EE10F014
:101450005750D9265850DA22CFC0DEFFD0C0DEFF69
:10146000D1C0DEFFD2C0DEFF20EE0CF05750D926EF
:101470005850DA22DECFCBF0DECFCCF0DECFCDF08D
:10148000DECFCEF0010ECB25CF6F000ECC21D06F7A
:10149000000ECD21D16F000ECE21D26F20EE0CF0C8
:1014A0005750D9265850DA22CFC0DEFFD0C0DEFF19
:1014B000D1C0DEFFD2C0DEFF010EDA6F57C07DF073
:1014C00058C07EF0BBEC95F00001DA19D8A46BEFA0
:1014D0008AF06DEF8AF053EF8DF0080EE46F53EF52
:1014E0008DF020EE33F05750D9265850DA22020EF4
:1014F000DE6E000EDD6E20EE37F05750D9265850C4
:10150000DA22010EDF6E060EE46F53EF8DF020EE4F
:1015100038F05750D9265850DA22100EDF6E20EEE0
:101520000CF05750D9265850DA220101EC51DE1840
:101530000DE1ED51DE180AE1EE51DE1807E1EF5141
:10154000DE18D8A4A6EF8AF0A8EF8AF053EF8DF04A
:1015500020EE2AF05750D9265850DA22000EDE6EBF
:10156000000EDD6E20EE10F05750D9265850DA22CA
:10157000DECFCBF0DECFCCF0DECFCDF0DECFCEF0C5
:10158000010E0001CB25CF6F000ECC21D06F000ED5
:10159000CD21D16F000ECE21D26F20EE10F057502A
:1015A000D9265850DA22CFC0DEFFD0C0DEFFD1C02E
:1015B000DEFFD2C0DEFF20EE0CF05750D926585087
:1015C000DA22DECFCBF0DECFCCF0DECFCDF0DECF37
:1015D000CEF0010ECB25CF6F000ECC21D06F000EC8
:1015E000CD21D16F000ECE21D26F20EE0CF05750DE
:1015F000D9265850DA22CFC0DEFFD0C0DEFFD1C0DE
:10160000DEFFD2C0DEFF010EDB6F57C07DF058C099
:101610007EF0BBEC95F00001DB19D8A412EF8BF043
:1016200014EF8BF053EF8DF00A0EE46F53EF8DF053
:1016300020EE37F05750D9265850DA22DF50D8B470
:1016400024EF8BF026EF8BF028EF8BF08DEF85F0F9
:1016500020EE38F05750D9265850DA22040EDF6EAB
:10166000010EDC6F57C07DF058C07EF0BBEC95F0EA
:101670000001DC19D8A43FEF8BF041EF8BF053EF62
:101680008DF0DFEF80F0E351CB6FCC6BCC51000AD3
:10169000D8B44DEF8BF053EF8DF0CB51040AD8B492
:1016A00071EF8AF0020AD8B4E0EF89F0010AD8B4E9
:1016B00087EF8AF00B0AD8B418EF8BF053EF8DF058
:1016C00020EE38F05750D9265850DA22100EDF6E2F
:1016D00020EE0CF05750D9265850DA220101EC5177
:1016E000DE180DE1ED51DE180AE1EE51DE1807E1DA
:1016F000EF51DE18D8A47FEF8BF081EF8BF053EF22
:101700008DF020EE2AF05750D9265850DA22000EDC
:10171000DE6E000EDD6E20EE10F05750D9265850C8
:10172000DA22DECFCBF0DECFCCF0DECFCDF0DECFD5
:10173000CEF0010E0001CB25CF6F000ECC21D06F73
:10174000000ECD21D16F000ECE21D26F20EE10F011
:101750005750D9265850DA22CFC0DEFFD0C0DEFF66
:10176000D1C0DEFFD2C0DEFF20EE0CF05750D926EC
:101770005850DA22DECFCBF0DECFCCF0DECFCDF08A
:10178000DECFCEF0010ECB25CF6F000ECC21D06F77
:10179000000ECD21D16F000ECE21D26F20EE0CF0C5
:1017A0005750D9265850DA22CFC0DEFFD0C0DEFF16
:1017B000D1C0DEFFD2C0DEFF010EDD6F57C07DF06D
:1017C00058C07EF0BBEC95F00001DD19D8A4EBEF1A
:1017D0008BF0EDEF8BF053EF8DF014EF8BF020EEEC
:1017E00037F05750D9265850DA22DF50D8B4FBEFE3
:1017F0008BF0FDEF8BF0FFEF8BF08DEF85F020EE9F
:1018000038F05750D9265850DA22040EDF6E010EF8
:10181000DE6F57C07DF058C07EF0BBEC95F0000144
:10182000DE19D8A416EF8CF018EF8CF053EF8DF082
:10183000DFEF80F0E351CB6FCC6BCC51000AD8B412
:1018400024EF8CF053EF8DF0CB51060AD8B460EF43
:101850008BF0010AD8B460EF8BF00B0AD8B4EFEF2D
:101860008BF053EF8DF0E351CB6FCC6BCC51000A72
:10187000D8B43DEF8CF053EF8DF0CB51040AD8B4BF
:1018800014EF8BF053EF8DF020EE02F05750D92675
:101890005850DA220101D751DE180DE1D851DE1877
:1018A0000AE1D951DE1807E1DA51DE18D8A45BEF5E
:1018B0008CF05DEF8CF053EF8DF020EE06F057507A
:1018C000D9265850DA22E851DE1807E1E951DE182E
:1018D000D8A46DEF8CF06FEF8CF053EF8DF0DFEF4D
:1018E00080F020EE37F05750D9265850DA22DF50DA
:1018F000D8B47DEF8CF07FEF8CF081EF8CF08DEF22
:1019000085F020EE38F05750D9265850DA22040ED0
:10191000DF6E010EDF6F57C07DF058C07EF0BBEC6C
:1019200095F00001DF19D8A498EF8CF09AEF8CF0B5
:1019300053EF8DF0DFEF80F0E351CB6FCC6BCC51E8
:10194000000AD8B4A6EF8CF053EF8DF0CB51040A07
:10195000D8B444EF8CF0030AD8B444EF8CF00B0AEF
:10196000D8B471EF8CF053EF8DF020EE33F0575078
:10197000D9265850DA22020EDE6E000EDD6E20EE01
:1019800035F05750D9265850DA22020EDE6E000E7E
:10199000DD6E20EE37F05750D9265850DA22030E6C
:1019A000DF6E20EE38F05750D9265850DA22020E5A
:1019B000DF6E57C07DF058C07EF0BBEC95F0020E94
:1019C0000001E46F010EE06F53EF8DF020EE02F0A6
:1019D0005750D9265850DA22DE6ADE6ADE6ADD6A9E
:1019E00020EE06F05750D9265850DA22000EDE6E4F
:1019F000000EDD6E010EE46FE2EF8CF0E351CB6F71
:101A0000CC6BCC51000AD8B408EF8DF053EF8DF0B9
:101A1000CB51010AD8B4B5EF8CF0030AD8B4E6EF85
:101A20008CF053EF8DF020EE2DF05750D926585002
:101A3000DA22DF500001CB6FCC6BCC51000AD8B456
:101A400024EF8DF053EF8DF0CB51000AD8B4FEEFA8
:101A50008CF0010AD8B4EAEF80F0030AD8B4F8EFAA
:101A600083F0010AD8B48EEF86F0070AD8B4B7EF36
:101A700089F0010AD8B443EF8BF0030AD8B41AEF07
:101A80008CF0010AD8B453EF8DF00F0AD8B433EFBD
:101A90008CF0010AD8B49CEF8CF0030AD8B4DFEFC5
:101AA00080F053EF8DF020EE2EF05750D92658508D
:101AB000DA220D0EDF6E20EE2DF05750D926585049
:101AC000DA22E4C0DFFF0001E051120049C0D9FF73
:101AD0004AC0DAFFDECFF6FFDDCFF7FF000EF86E6B
:101AE0000800F550250AD8A478EF8DF07AEF8DF034
:101AF000F6EF91F049C0D9FF4AC0DAFFDE2A000EA6
:101B0000DD22000E0101DC6F000EDB6FDBC1F5F0A2
:101B1000DCC1F6F00001F369F469000E716F000E8C
:101B2000706FDBEF8DF0F58149C0D9FF4AC0DAFF55
:101B3000DE2A000EDD22DBEF8DF0F58394EF8DF0D1
:101B4000F58594EF8DF0F58794EF8DF0F58994EF9E
:101B50008DF0000E716F010E706FDBEF8DF049C0DC
:101B6000D9FF4AC0DAFFDECFF6FFDDCFF7FF000E68
:101B7000F86E0800F550606F616B6151000AD8B4CF
:101B8000C4EF8DF0A9EF8DF06051200AD8B4A3EF17
:101B90008DF0030AD8B4A6EF8DF0080AD8B4A0EFF0
:101BA0008DF0060AD8B493EF8DF01D0AD8B49DEFDE
:101BB0008DF0A9EF8DF070517111D8B4E2EF8DF076
:101BC000E4EF8DF0AFEF8DF0F5A1E9EF8DF0EBEFE5
:101BD0008DF0ECEF8DF0F59349C0D9FF4AC0DAFFE4
:101BE000DECFF6FFDDCFF7FF000EF86E0800F550F0
:101BF0002A0AD8A4FEEF8DF000EF8EF02CEF8EF0C5
:101C000049C0D9FF4AC0DAFFDE2A000EDD224BC0F0
:101C1000D9FF4CC0DAFFDFCF60F0020EDE26DFCF47
:101C200061F0000EDD2260C0D9FF61C0DAFFDECFB7
:101C3000DBF1DDCFDCF10101DCBF23EF8EF021EF22
:101C40008EF072EF8EF00001F5810101DB6DDC1F7B
:101C5000D8B0DC2B72EF8EF049C0D9FF4AC0DAFF52
:101C6000DECF0CF0DDCF0DF067ECABF00CC0DBF19C
:101C70000DC0DCF143EF8EF049C0D9FF4AC0DAFF56
:101C8000DE2A000EDD22D00E0001606FFF0E616FB4
:101C900049C0D9FF4AC0DAFFDECFF6FFDDCFF7FF3C
:101CA000000EF86E0800F550626F636B605162279A
:101CB0006151632363510AE10A0E625DD8A063EFAC
:101CC0008EF066EF8EF0010E67EF8EF0000E726FF1
:101CD000736B72517311D8A470EF8EF072EF8EF0A7
:101CE0003CEF8EF049C0D9FF4AC0DAFFDECFF6FFE5
:101CF000DDCFF7FF000EF86E0800F5502E0AD8A4CD
:101D000084EF8EF086EF8EF009EF8FF0000E000169
:101D1000F46F000EF36F49C0D9FF4AC0DAFFDE2A24
:101D2000000EDD2249C0D9FF4AC0DAFFDECFF6FF40
:101D3000DDCFF7FF000EF86E0800F5502A0AD8A490
:101D4000A4EF8EF0A6EF8EF0C3EF8EF049C0D9FF5E
:101D50004AC0DAFFDE2A000EDD224BC0D9FF4CC09C
:101D6000DAFFDFCF60F0020EDE26DFCF61F0000E7B
:101D7000DD2260C0D9FF61C0DAFFDECFF3F0DDCF36
:101D8000F4F009EF8FF049C0D9FF4AC0DAFFDECF87
:101D90000CF0DDCF0DF067ECABF00CC0F3F00DC034
:101DA000F4F0DAEF8EF049C0D9FF4AC0DAFFDE2A3C
:101DB000000EDD22D00E0001606FFF0E616F49C082
:101DC000D9FF4AC0DAFFDECFF6FFDDCFF7FF000E06
:101DD000F86E0800F550626F636B605162276151C5
:101DE000632363510AE10A0E625DD8A0FAEF8EF018
:101DF000FDEF8EF0010EFEEF8EF0000E746F756B2E
:101E000074517511D8A407EF8FF009EF8FF0D3EF5D
:101E10008EF049C0D9FF4AC0DAFFDECFF6FFDDCF32
:101E2000F7FF000EF86E0800F550640AD8B41BEFF7
:101E30008FF01DEF8FF031EF8FF049C0D9FF4AC00E
:101E4000DAFFDECFF6FFDDCFF7FF000EF86E0800F9
:101E5000F550690AD8A42FEF8FF031EF8FF072EFB1
:101E60008FF049C0D9FF4AC0DAFFDE2A000EDD221A
:101E70004BC0D9FF4CC0DAFFDFCF60F0020EDE2688
:101E8000DFCF61F0000EDD2260C0D9FF61C0DAFF54
:101E9000DECF76F0DDCF77F00001000E77BFFF0ECA
:101EA000786F796F7A6F7B6F7C6F7D6F47C020F0A2
:101EB00048C021F076C022F077C023F078C024F02B
:101EC00079C025F07AC026F07BC027F07CC028F0CE
:101ED0007DC029F01AEC9FF020C047F021C048F0E7
:101EE00013EF92F049C0D9FF4AC0DAFFDECF05F008
:101EF000DDCF06F0ED0E076EFF0E086E000E0A6EC7
:101F0000020E096E30ECB7F005500610D8B48BEF16
:101F10008FF08DEF8FF0A8EF8FF049C0D9FF4AC046
:101F2000DAFFDECF05F0DDCF06F0F00E076EFF0E14
:101F3000086E000E0A6E020E096E30ECB7F0055006
:101F40000610D8A4A6EF8FF0A8EF8FF0ECEF8FF07B
:101F5000020E49C0D9FF4AC0DAFFDE26000EDD229C
:101F60004BC0D9FF4CC0DAFFDFCF60F0040EDE2695
:101F7000DFCF61F0000EDD2260C0D9FF61C0DAFF63
:101F8000DECF62F0DECF63F0DECF64F0DECF65F04F
:101F900062C066F063C067F064C068F065C069F055
:101FA00000016A6B69BF6A696AC06BF06AC06CF055
:101FB0006AC06DF066C076F067C077F068C078F0F0
:101FC00069C079F06AC07AF06BC07BF06CC07CF0BD
:101FD0006DC07DF056EF8FF049C0D9FF4AC0DAFFDF
:101FE000DECFF6FFDDCFF7FF000EF86E0800F550EC
:101FF000730AD8A4FEEF8FF000EF90F02BEF90F073
:1020000049C0D9FF4AC0DAFFDE2A000EDD224BC0EC
:10201000D9FF4CC0DAFFDFCF60F0020EDE26DFCF43
:1020200061F0000EDD2260C0D9FF61C0DAFFDECFB3
:102030006EF0DDCF6FF047C00EF048C00FF06EC0FD
:1020400010F06FC011F039ECACF00EC047F00FC0CB
:1020500048F013EF92F049C0D9FF4AC0DAFFDECF53
:10206000F6FFDDCFF7FF000EF86E0800F550750A99
:10207000D8A43DEF90F03FEF90F081EF90F049C091
:10208000D9FF4AC0DAFFDE2A000EDD224BC0D9FF9D
:102090004CC0DAFFDFCF60F0020EDE26DFCF61F04A
:1020A000000EDD2260C0D9FF61C0DAFFDECF62F032
:1020B000DDCF63F062C07FF063C080F00001816B10
:1020C000826B836B846B856B866B47C020F048C046
:1020D00021F07FC022F080C023F081C024F082C0B4
:1020E00025F083C026F084C027F085C028F086C084
:1020F00029F0CAECA6F020C047F021C048F013EF49
:1021000092F049C0D9FF4AC0DAFFDECF05F0DDCF3B
:1021100006F0F30E076EFF0E086E000E0A6E020E3A
:10212000096E30ECB7F005500610D8A49AEF90F085
:102130009CEF90F0CBEF90F0020E49C0D9FF4AC05F
:10214000DAFFDE26000EDD224BC0D9FF4CC0DAFFDD
:10215000DFCF60F0040EDE26DFCF61F0000EDD225F
:1021600060C0D9FF61C0DAFFDECF62F0DECF63F07E
:10217000DECF64F0DECF65F0000162517F6F635106
:10218000806F6451816F6551826F836B846B856B47
:10219000866B65EF90F049C0D9FF4AC0DAFFDECF09
:1021A000F6FFDDCFF7FF000EF86E0800F550780A55
:1021B000D8B4DDEF90F0DFEF90F0F3EF90F049C08E
:1021C000D9FF4AC0DAFFDECFF6FFDDCFF7FF000E02
:1021D000F86E0800F550580AD8A4F1EF90F0F3EF2C
:1021E00090F044EF91F049C0D9FF4AC0DAFFDECF4A
:1021F000F6FFDDCFF7FF000EF86E0800F5CF7EF09A
:1022000049C0D9FF4AC0DAFFDE2A000EDD224BC0EA
:10221000D9FF4CC0DAFFDFCF60F0020EDE26DFCF41
:1022200061F0000EDD2260C0D9FF61C0DAFFDECFB1
:1022300062F0DDCF63F062C07FF063C080F0000128
:10224000816B826B836B846B856B866B47C020F0E0
:1022500048C021F07FC022F080C023F081C024F06C
:1022600082C025F083C026F084C027F085C028F006
:1022700086C029F07EC02AF08CECA0F020C047F088
:1022800021C048F013EF92F049C0D9FF4AC0DAFFED
:10229000DECF05F0DDCF06F0F60E076EFF0E086EFE
:1022A000000E0A6E020E096E30ECB7F005500610F3
:1022B000D8B45DEF91F05FEF91F07AEF91F049C003
:1022C000D9FF4AC0DAFFDECF05F0DDCF06F0480EB9
:1022D000076EFF0E086E000E0A6E020E096E30ECDD
:1022E000B7F005500610D8A478EF91F07AEF91F08E
:1022F000BEEF91F049C0D9FF4AC0DAFFDECF60F0EF
:10230000DDCF61F0010E00016027000E612360C087
:10231000F6FF61C0F7FF000EF86E0800F5CF7EF003
:10232000020E49C0D9FF4AC0DAFFDE26000EDD22C8
:102330004BC0D9FF4CC0DAFFDFCF60F0040EDE26C1
:10234000DFCF61F0000EDD2260C0D9FF61C0DAFF8F
:10235000DECF62F0DECF63F0DECF64F0DECF65F07B
:1023600062517F6F6351806F6451816F6551826FDD
:10237000836B846B856B866B26EF91F049C0D9FF28
:102380004AC0DAFFDECFF6FFDDCFF7FF000EF86EB2
:102390000800F550250AD8A4D0EF91F0D2EF91F0C3
:1023A000E9EF91F049C0D9FF4AC0DAFFDE2A000EFA
:1023B000DD22000E066E250E056E47C007F048C0F0
:1023C00008F0DEECB9F0000E486E010E476E13EF18
:1023D00092F049C0D9FF4AC0DAFFDE2A000EDD22A2
:1023E000000E486E000E476E13EF92F049C0D9FF01
:1023F0004AC0DAFFDECFF6FFDDCFF7FF000EF86E42
:102400000800F550056E066A47C007F048C008F09E
:10241000DEECB9F049C0D9FF4AC0DAFFDE2A000E6F
:10242000DD22E3EF91F012006A0E056E000E066EDB
:10243000000E086E1C0E076E29ECC0F005C060F09F
:1024400006C061F01C0E000160196111D8A42BEFC9
:1024500092F02DEF92F0BAEF95F0000E626F000E41
:10246000686F050E696F6A51206E1F6A6AC021F09D
:102470006BC022F022C021F0226AFF0E2116000E4E
:1024800022161F5021122050221221042210D8B4EB
:102490004CEF92F04EEF92F052EF92F0BAEF95F0CF
:1024A000BAEF95F06C51206E1F6A20EE6CF0DECF13
:1024B00021F0DDCF22F022C021F0226AFF0E21168A
:1024C000000E22161F50211220502212080E221830
:1024D0002110D8B46EEF92F070EF92F072EF92F09C
:1024E000BAEF95F0060E6E19D8B479EF92F07BEF43
:1024F00092F07DEF92F0BAEF95F0040E6F19D8B418
:1025000084EF92F086EF92F088EF92F0BAEF95F0B8
:10251000080E666F20EE06F06851D9266951DA225E
:10252000FF0E7815236E000E7915246E000E7A15B5
:10253000256E000E7B15266E23C026F0256A246AC0
:10254000236A10EE78F0000EE614276EFF0EE614F4
:10255000286E000EE614296E000EE6142A6E29C0BD
:102560002AF028C029F027C028F0276A78C02BF06D
:1025700079C02CF07AC02DF07BC02EF02CC02BF04F
:102580002DC02CF02EC02DF02E6A000E2B142F6EB5
:10259000FF0E2C14306E000E2D14316E000E2E1412
:1025A000326E78C033F079C034F07AC035F07BC039
:1025B00036F0190EE1EF92F0D890363235323432DF
:1025C0003332E82EDCEF92F0FF0E3314376E000E3C
:1025D0003414386E000E3514396E000E36143A6E0F
:1025E0002F5037103B6E305038103C6E3150391040
:1025F0003D6E32503A103E6E27503B103F6E2850D1
:102600003C10406E29503D10416E2A503E10426EE3
:1026100023503F10436E24504010446E255041100B
:10262000456E26504210466EDE5043180DE1DE50D6
:1026300044180AE1DE50451807E1DE504618D8A4D8
:1026400024EF93F026EF93F04FEF93F020EE0AF093
:102650006851D9266951DA22DE506C1907E1DE5043
:102660006D19D8A436EF93F038EF93F04FEF93F055
:1026700020EE0CF06851D9266951DA22000EDF6E87
:1026800020EE72F068C0E1FF69C0E2FF050EDBCF0B
:10269000E3FFE806FCE2010E626F5CEF93F00D0EC3
:1026A0006827000E692366076651D8A45AEF93F095
:1026B0005CEF93F08AEF92F00201005101110211D8
:1026C0000311D8B466EF93F068EF93F0BAEF95F08A
:1026D000FF0E000182151F6E000E8315206E000E86
:1026E0008415216E000E8515226E1FC022F0216A0E
:1026F000206A1F6A20EE82F0000EDE14236EFF0EA9
:10270000DE14246E000EDE14256E000EDE14266E1E
:1027100025C026F024C025F023C024F0236A82C0FF
:1027200027F083C028F084C029F085C02AF028C093
:1027300027F029C028F02AC029F02A6A000E2714A1
:102740002B6EFF0E28142C6E000E29142D6E000E19
:102750002A142E6E82C02FF083C030F084C031F076
:1027600085C032F0190EBAEF93F0D8903232313280
:1027700030322F32E82EB5EF93F0FF0E2F14336E68
:10278000000E3014346E000E3114356E000E32140B
:10279000366E2B503310376E2C503410386E2D504F
:1027A0003510396E2E5036103A6E235037103B6E6E
:1027B000245038103C6E255039103D6E26503A108A
:1027C0003E6E1F503B103F6E20503C10406E21501B
:1027D0003D10416E22503E10426E020100513F18E2
:1027E0000DE1015140180AE10251411807E103517E
:1027F0004218D8A4FEEF93F000EF94F0BAEF95F0F2
:1028000000016251D8A407EF94F009EF94F0E8EFCB
:1028100094F0000E686F050E696F000E646F050E70
:10282000656F080E676F20EE0CF06451D926655174
:10283000DA2210EE0CF06851E1266951E222DE50F6
:10284000E65CD8B026EF94F028EF94F02CEF94F0EB
:1028500064C068F065C069F00D0E6427000E652342
:1028600067076751D8A437EF94F039EF94F013EF6E
:1028700094F020EE0CF06851D9266951DA22000E4E
:10288000DF6E20EE72F068C0E1FF69C0E2FF050E66
:10289000DBCFE3FFE806FCE2FF0E78151F6E000EAB
:1028A0007915206E000E7A15216E000E7B15226EB2
:1028B0001FC022F0216A206A1F6A20EE78F0000E05
:1028C000DE14236EFF0EDE14246E000EDE14256E61
:1028D000000EDE14266E25C026F024C025F023C08D
:1028E00024F0236A78C027F079C028F07AC029F054
:1028F0007BC02AF028C027F029C028F02AC029F080
:102900002A6A000E27142B6EFF0E28142C6E000E60
:1029100029142D6E000E2A142E6E78C02FF079C067
:1029200030F07AC031F07BC032F0190E9DEF94F098
:10293000D8903232313230322F32E82E98EF94F084
:10294000FF0E2F14336E000E3014346E000E31144F
:10295000356E000E3214366E2B503310376E2C50FD
:102960003410386E2D503510396E2E5036103A6EA8
:10297000235037103B6E245038103C6E25503910D0
:102980003D6E26503A103E6E1F503B103F6E205059
:102990003C10406E21503D10416E22503E10426E60
:1029A00020EE06F06851D9266951DA223FC0DEFFD9
:1029B00040C0DEFF41C0DEFF42C0DEFF20EE0AF075
:1029C0006851D9266951DA226CC0DEFF6DC0DDFF87
:1029D00071057011D8A4EFEF94F0F1EF94F0BAEF15
:1029E00095F0720E176E000E186E080E1A6E060E17
:1029F000196E95ECA4F00001636F6305D8A403EF92
:102A000095F005EF95F050EF92F020EE72F010EE99
:102A10007CF0050EDBCFE3FFE806FCE2720E056EEC
:102A2000000E066EE00E076E020E086E000E0A6EB5
:102A3000060E096E13ECC2F078C082F079C083F004
:102A40007AC084F07BC085F0FF0E020100151F6E76
:102A5000000E0115206E000E0215216E000E0315EA
:102A6000226E1FC022F0216A206A1F6A000E001524
:102A7000236EFF0E0115246E000E0215256E000E4A
:102A80000315266E25C026F024C025F023C024F0AF
:102A9000236A00C227F001C228F002C229F003C253
:102AA0002AF028C027F029C028F02AC029F02A6A75
:102AB000000E27142B6EFF0E28142C6E000E291406
:102AC0002D6E000E2A142E6E00C22FF001C230F0BF
:102AD00002C231F003C232F0190E74EF95F0D890B3
:102AE0003232313230322F32E82E6FEF95F0FF0E56
:102AF0002F14336E000E3014346E000E3114356E08
:102B0000000E3214366E2B503310376E2C503410AA
:102B1000386E2D503510396E2E5036103A6E2350C7
:102B200037103B6E245038103C6E255039103D6EE6
:102B300026503A103E6E1F503B100001786F205017
:102B40003C10796F21503D107A6F22503E107B6F00
:102B5000020E716F000E706F6A0E056E000E066E2B
:102B6000000E086E1C0E076E3BECC2F00DECB9F0C7
:102B7000BAEF95F012007DC0D9FF7EC0DAFFDECF3C
:102B80007FF0DDCF80F000017F51826F816B7DC0CF
:102B9000D9FF7EC0DAFFDECF83F0DDCF84F084C0C2
:102BA00083F0846BFF0E8317000E8417815183110D
:102BB000AA6F82518411AB6F20EE06F07D51D926A9
:102BC0007E51DA22DECF7FF0DDCF80F07F51826F41
:102BD000816B20EE06F07D51D9267E51DA22DECFC0
:102BE00083F0DDCF84F084C083F0846BFF0E831705
:102BF000000E841781518311AC6F82518411AD6F27
:102C000020EE10F07D51D9267E51DA22DECF7FF002
:102C1000DECF80F0DECF81F0DECF82F0FF0E7F15B9
:102C2000836F000E8015846F000E8115856F000E76
:102C30008215866F83C086F0856B846B836B20EE74
:102C400010F07D51D9267E51DA22000EDE14876FF6
:102C5000FF0EDE14886F000EDE14896F000EDE1486
:102C60008A6F89C08AF088C089F087C088F0876B36
:102C700020EE10F07D51D9267E51DA22DECF8BF086
:102C8000DECF8CF0DECF8DF0DECF8EF08CC08BF0FF
:102C90008DC08CF08EC08DF08E6B000E8B158F6FFB
:102CA000FF0E8C15906F000E8D15916F000E8E1516
:102CB000926F20EE10F07D51D9267E51DA22DECFC0
:102CC00093F0DECF94F0DECF95F0DECF96F0190EC4
:102CD0006FEF96F0D8909633953394339333E82E74
:102CE0006AEF96F0FF0E9315976F000E9415986F8C
:102CF000000E9515996F000E96159A6F8F519711CA
:102D00009B6F905198119C6F915199119D6F9251A9
:102D10009A119E6F87519B119F6F88519C11A06FD4
:102D200089519D11A16F8A519E11A26F83519F11EC
:102D3000AE6F8451A011AF6F8551A111B06F865154
:102D4000A211B16F20EE0CF07D51D9267E51DA220E
:102D5000DECF7FF0DECF80F0DECF81F0DECF82F0FD
:102D6000FF0E7F15836F000E8015846F000E811596
:102D7000856F000E8215866F83C086F0856B846B2D
:102D8000836B20EE0CF07D51D9267E51DA22000EA5
:102D9000DE14876FFF0EDE14886F000EDE14896F5D
:102DA000000EDE148A6F89C08AF088C089F087C05F
:102DB00088F0876B20EE0CF07D51D9267E51DA2207
:102DC000DECF8BF0DECF8CF0DECF8DF0DECF8EF05D
:102DD0008CC08BF08DC08CF08EC08DF08E6B000E91
:102DE0008B158F6FFF0E8C15906F000E8D15916FE8
:102DF000000E8E15926F20EE0CF07D51D9267E517B
:102E0000DA22DECF93F0DECF94F0DECF95F0DECF86
:102E100096F0190E11EF97F0D890963395339433BE
:102E20009333E82E0CEF97F0FF0E9315976F000E7B
:102E30009415986F000E9515996F000E96159A6F60
:102E40008F5197119B6F905198119C6F91519911CF
:102E50009D6F92519A119E6F87519B119F6F885160
:102E60009C11A06F89519D11A16F8A519E11A26F73
:102E700083519F11B26F8451A011B36F8551A1117D
:102E8000B46F8651A211B56FB691F10EB617B65157
:102E90000F0B5009B66F20EE1AF07D51D9267E51E6
:102EA000DA22DECF7FF0DDCF80F07F51826F816B41
:102EB00020EE1AF07D51D9267E51DA22DECF83F042
:102EC000DDCF84F084C083F0846BFF0E8317000E87
:102ED000841781518311B86F82518411B96F000E2C
:102EE000BB6F000EBA6F000EBD6F000EBC6F20EE00
:102EF00038F07D51D9267E51DA22DF507F6F060EE1
:102F00007F17D8B486EF97F088EF97F08EEF97F0A1
:102F1000000EF86F000EF76F5AEF98F020EE2CF0CD
:102F20007D51D9267E51DA22DE04D8A49AEF97F09B
:102F30009CEF97F09EEF97F088EF97F020EE2AF045
:102F40007D51D9267E51DA22DECFF7F0DDCFF8F0C1
:102F5000F751F811D8B4AFEF97F0B1EF97F05AEFFF
:102F600098F020EE18F07D51D9267E51DA22DE50FD
:102F7000DE10D8A4BEEF97F0C0EF97F0CAEF97F03D
:102F800020EE18F07D51D9267E51DA22010EDE6E38
:102F9000000EDD6E20EE18F07D51D9267E51DA222A
:102FA000F751DE5CF851DE58D8B0D9EF97F0DBEF7F
:102FB00097F0E5EF97F020EE18F07D51D9267E517D
:102FC000DA22DECFF7F0DDCFF8F020EE1CF07D51F5
:102FD000D9267E51DA22F751DE5CF851DE58D8B09E
:102FE000F4EF97F0F6EF97F000EF98F020EE1CF07A
:102FF0007D51D9267E51DA22DECFF7F0DDCFF8F011
:1030000020EE25F07D51D9267E51DA22DECFA3F0C5
:10301000DDCFA4F020EE25F07D51D9267E51DA22B5
:10302000DECF7FF0DDCF80F0F7517F27F85180238E
:1030300020EE25F07D51D9267E51DA227FC0DEFFB9
:1030400080C0DDFF20EE2AF07D51D9267E51DA22A4
:10305000DECF7FF0DDCF80F0F7517F5FF851805BEE
:1030600020EE27F07D51D9267E51DA227FC0DEFF87
:1030700080C0DDFF20EE27F07D51D9267E51DA2277
:10308000DE50DE10D8A447EF98F049EF98F05AEFE1
:1030900098F020EE38F07D51D9267E51DA2210EEDC
:1030A00038F07D51E1267E51E222E7500809DF6EBB
:1030B0005AEF98F020EE38F07D51D9267E51DA2271
:1030C000DF50B76F140EF725A76F000EF821A86F19
:1030D00020EE02F07D51D9267E51DA22DECF43F078
:1030E000DECF44F0DECF45F0DECF46F0060E476E71
:1030F00059ECA3F00001A96FA905D8A482EF98F0BC
:1031000084EF98F0D3EF98F0AA0E056E000E066ECD
:10311000000E086E140E076E3BECC2F00001F75172
:10312000F811D8B496EF98F098EF98F0A2EF98F0D5
:10313000A3C005F0A4C006F0F7C007F0F8C008F07F
:103140003BECC2F0060E0001A725A56F000EA821DA
:10315000A66F000E186E1A0E176E080EA725196EB0
:10316000000EA8211A6EA5C01BF0A6C01CF0C7EC6B
:10317000BEF017C0A5F018C0A6F0A50E056E000E93
:10318000066E000E086E020E076E000E0A6E320EFC
:10319000096EF3ECBFF0A7C025F0A8C026F012EC32
:1031A000BDF00001A96FA905D8B4D9EF98F0DBEF05
:1031B00098F00FEF99F0120EA919D8B4E2EF98F039
:1031C000E4EF98F00FEF99F020EE37F07D51D9261B
:1031D0007E51DA2210EE37F07D51E1267E51E22257
:1031E000E7507F6F7F05DF6E20EE33F07D51D926EB
:1031F0007E51DA22DE50DE10D8A401EF99F003EF01
:1032000099F037EF99F020EE33F07D51D9267E51B9
:10321000DA22020EDE6E000EDD6E37EF99F020EE40
:1032200010F07D51D9267E51DA22DECF7FF0DECF3D
:1032300080F0DECF81F0DECF82F0F7517F25836F03
:10324000F8518021846F000E8121856F000E82214C
:10325000866F20EE10F07D51D9267E51DA2283C090
:10326000DEFF84C0DEFF85C0DEFF86C0DEFFA95121
:103270001200000E01016A6F000E696F2AECC3F0A4
:103280000101686F68C117F0186A000E1A6E000E0F
:10329000196E17ECBCF017C06BF118C06CF101018E
:1032A0006B516C11D8B457EF99F059EF99F05BEF6F
:1032B00099F0A8EF9CF0AE0E056E020E066E000EA1
:1032C000086E140E076E29ECC0F00201AE390F0B28
:1032D000040AD8B46EEF99F070EF99F072EF99F09C
:1032E000A8EF9CF0FF0EBE150101206F000E020139
:1032F000BF150101216F000E0201C0150101226FEF
:10330000000E0201C1150101236F20C123F1226BC0
:10331000216B206B22EEBEF0000EDE14246FFF0E38
:10332000DE14256F000EDE14266F000EDE14276FEC
:1033300026C127F125C126F124C125F1246BBEC287
:1033400028F1BFC229F1C0C22AF1C1C22BF129C1A3
:1033500028F12AC129F12BC12AF12B6B000E281567
:103360002C6FFF0E29152D6F000E2A152E6F000EE3
:103370002B152F6FBEC230F1BFC231F1C0C232F186
:10338000C1C233F1190ECAEF99F0D89033333233FA
:1033900031333033E82EC5EF99F0FF0E3015346F1E
:1033A000000E3115356F000E3215366F000E3315D5
:1033B000376F2C513411386F2D513511396F2E5113
:1033C00036113A6F2F5137113B6F245138113C6F32
:1033D000255139113D6F26513A113E6F27513B114E
:1033E0003F6F20513C110201BE6F010121513D117F
:1033F0000201BF6F010122513E110201C06F0101A4
:1034000023513F110201C16FFF0EBA150101206F58
:10341000000E0201BB150101216F000E0201BC1557
:103420000101226F000E0201BD150101236F20C1B1
:1034300023F1226B216B206B22EEBAF0000EDE141A
:10344000246FFF0EDE14256F000EDE14266F000EB3
:10345000DE14276F26C127F125C126F124C125F1ED
:10346000246BBAC228F1BBC229F1BCC22AF1BDC289
:103470002BF129C128F12AC129F12BC12AF12B6B8B
:10348000000E28152C6FFF0E29152D6F000E2A1522
:103490002E6F000E2B152F6FBAC230F1BBC231F167
:1034A000BCC232F1BDC233F1190E5CEF9AF0D89074
:1034B0003333323331333033E82E57EF9AF0FF0E87
:1034C0003015346F000E3115356F000E3215366F22
:1034D000000E3315376F2C513411386F2D513511C3
:1034E000396F2E5136113A6F2F5137113B6F2451DE
:1034F00038113C6F255139113D6F26513A113E6FFD
:1035000027513B113F6F20513C110201BA6F01015D
:1035100021513D110201BB6F010122513E110201F7
:10352000BC6F010123513F110201BD6FBA290AE1AD
:10353000BB2908E1BC2906E1BD29D8A4A2EF9AF075
:10354000A4EF9AF0A6EF9AF0A8EF9CF00051BE19F4
:103550000FE10151BF190CE10251C01909E10351FA
:10356000C119D8B4B6EF9AF0B8EF9AF065EF9BF0B6
:10357000BE51BF11C011C111D8B4C1EF9AF0C3EF51
:103580009AF065EF9BF0BE290CE1BF290AE1C02942
:1035900008E1C129D8B4CFEF9AF0D1EF9AF065EFE6
:1035A0009BF0FF0E00110101206FFF0E02010111BF
:1035B0000101216FFF0E020102110101226F000EB5
:1035C000020103110101236F0201BE510101201903
:1035D00015E10201BF510101211910E10201C051A1
:1035E000010122190BE10201C15101012319D8B4D3
:1035F000FCEF9AF0FEEF9AF065EF9BF0FF0E0201F0
:1036000000110101206FFF0E020101110101216F64
:10361000000E020102110101226F000E02010311CE
:103620000101236F0201BE510101201915E10201C0
:10363000BF510101211910E10201C05101012219FC
:103640000BE10201C15101012319D8B42AEF9BF00B
:103650002CEF9BF065EF9BF0FF0E020100110101C2
:10366000206F020101510101216F0201025101018C
:10367000226F020103510101236F0201BE510101BA
:10368000201915E10201BF510101211910E10201C8
:10369000C051010122190BE10201C151010123199D
:1036A000D8B455EF9BF057EF9BF065EF9BF002010C
:1036B000BE0509E1E00EC119BF11C011D8A463EF26
:1036C0009BF065EF9BF0A8EF9CF00201B051010167
:1036D000216F206B22EEB0F0DECF22F1DDCF23F19F
:1036E00023C122F1236BFF0E2217000E2317205156
:1036F00022110201B06F0101215123110201B16FAA
:10370000AE510F0B0101206FD8902037D890203593
:10371000686F0201AE510F0B0101206F050E206191
:1037200094EF9BF096EF9BF098EF9BF0A8EF9CF046
:103730000201AE510F0B0101206F050E2065A3EFB2
:103740009BF0A5EF9BF08DEF9CF0EC0E6825056ECD
:10375000066AFF0E0622EBECC1F08DEF9CF0020131
:10376000BE51BF11C011C111D8A4B9EF9BF0BBEF7E
:103770009BF0BDEF9BF0A8EF9CF0010168510201A6
:10378000B05D0101696F0201B151D8A0B10501011D
:103790006A6F69C117F06AC118F0000E1A6E000E48
:1037A000196E17ECBCF017C06BF118C06CF1010179
:1037B0006B516C11D8A4DFEF9BF0E1EF9BF0EAEFC7
:1037C0009BF0AE0E00018E6F020E8F6F29ECB6F0EB
:1037D000A8EF9CF0400E00018D6F010E8E6F710EF0
:1037E0008F6FFE0E906F6BC191F06CC192F048EC40
:1037F000C1F0A8EF9CF068510201B05D0101696F52
:103800000201B151D8A0B10501016A6F69C105F08B
:103810006AC106F023ECB8F005C06BF106C06CF18C
:1038200069C117F06AC118F06BC119F06CC11AF0C8
:1038300017ECBCF017C06BF118C06CF16BC18AF0CB
:103840006CC18BF0D2ECADF0A8EF9CF06851020196
:10385000B05D0101696F0201B151D8A0B10501014C
:103860006A6F69C105F06AC106F023ECB8F005C0C3
:103870006BF106C06CF169C117F06AC118F06BC139
:1038800019F06CC11AF017ECBCF017C06BF118C03E
:103890006CF101016B516C11D8A451EF9CF053EF06
:1038A0009CF0A8EF9CF00201BE290CE1BF290AE1BF
:1038B000C02908E1C129D8B460EF9CF062EF9CF008
:1038C000A8EF9CF0BE51BF11C011C111D8B46BEF6D
:1038D0009CF06DEF9CF0A8EF9CF0BAC264F2BBC202
:1038E00065F2BCC266F2BDC267F264C2E5F065C2B1
:1038F000E6F066C2E7F067C2E8F069C1E9F06AC1C4
:10390000EAF0A9EC9CF0A8EF9CF0B0C205F0B1C2BF
:1039100006F0EBECC1F0A8EF9CF00201B7510101F9
:10392000206F216B2151000AD8B499EF9CF085EFEC
:103930009CF02051010AD8B4AFEF9BF0070AD8B42D
:1039400026EF9CF0170AD8B4FBEF9BF085EF9CF0B4
:103950001200000E0001EB6F000E0101D76F000E88
:10396000D86F000ED96F000EDA6F000EE06F000EF8
:10397000DF6FE80E056E010E066E000E086E140E67
:10398000076E29ECC0F0000E576E000E586E010154
:10399000EA51EB11D8B4CFEF9CF0D1EF9CF019EFC6
:1039A0009FF0E851E911D8B4D8EF9CF0DAEF9CF021
:1039B00019EF9FF0E851016F006BE8C102F1E9C116
:1039C00003F103C102F1036BFF0E0217000E031790
:1039D00000510211E86F01510311E96FEA51016FC3
:1039E000006B21EEEAF0DECF02F1DDCF03F103C17F
:1039F00002F1036BFF0E0217000E031700510211B4
:103A0000EA6F01510311EB6FE3C1ECF0E4C1EDF09B
:103A10002CEF9DF0ECC0D9FFEDC0DAFFDE50EA19C3
:103A200007E1DE50EB19D8A418EF9DF01AEF9DF0D6
:103A300020EF9DF0ECC057F0EDC058F044EF9DF042
:103A4000000120EE2FF0EC51D926ED51DA22DECF25
:103A5000ECF0DDCFEDF0EB2B0001EC51ED11D8B423
:103A600034EF9DF036EF9DF044EF9DF0EB51800A6E
:103A70000101006FE751800A005DD8A042EF9DF080
:103A800044EF9DF00AEF9DF057505810D8B44BEF1B
:103A90009DF04DEF9DF019EF9FF020EE06F057508E
:103AA000D9265850DA220101E851DE1809E1E9511E
:103AB000DE18D8B45EEF9DF060EF9DF071EF9DF0E1
:103AC00020EE02F05750D9265850DA22DE50DE1090
:103AD000DE10DE10D8A46FEF9DF071EF9DF019EFAE
:103AE0009FF0E5C0D7F1E6C0D8F1E7C0D9F1E8C052
:103AF000DAF1F4390F0B006F016BD8900037013702
:103B0000D8900037013700510001E95D0101DF6FF6
:103B100001510001EA590101E06FACECA9F0E8069F
:103B2000D8A495EF9DF097EF9DF019EF9FF001015C
:103B3000F5A39DEF9DF09FEF9DF0BAEF9DF0F5A9E5
:103B4000A4EF9DF0A6EF9DF0B0EF9DF020EE2EF0DB
:103B50005750D9265850DA22050EDF6E0DEF9EF031
:103B600020EE2EF05750D9265850DA22030EDF6E81
:103B70000DEF9EF0F5A1BFEF9DF0C1EF9DF0DCEFE2
:103B80009DF0F5A9C6EF9DF0C8EF9DF0D2EF9DF036
:103B900020EE2EF05750D9265850DA22070EDF6E4D
:103BA0000DEF9EF020EE2EF05750D9265850DA2215
:103BB000060EDF6E0DEF9EF0F5A5E1EF9DF0E3EF51
:103BC0009DF0FEEF9DF0F5A9E8EF9DF0EAEF9DF086
:103BD000F4EF9DF020EE2EF05750D9265850DA22FF
:103BE0000A0EDF6E0DEF9EF020EE2EF05750D92614
:103BF0005850DA22090EDF6E0DEF9EF0F5A903EFA3
:103C00009EF005EF9EF00DEF9EF020EE2EF0575047
:103C1000D9265850DA22040EDF6EFF0EF015006F21
:103C2000000EF115016F000EF215026F000EF31574
:103C3000036F00C103F1026B016B006B21EEF0F02A
:103C4000000EDE14046FFF0EDE14056F000EDE148E
:103C5000066F000EDE14076F06C107F105C106F1FD
:103C600004C105F1046BF0C108F1F1C109F1F2C121
:103C70000AF1F3C10BF109C108F10AC109F10BC145
:103C80000AF10B6B000E08150C6FFF0E09150D6F76
:103C9000000E0A150E6F000E0B150F6FF0C110F11C
:103CA000F1C111F1F2C112F1F3C113F1190E5EEF7E
:103CB0009EF0D8901333123311331033E82E59EF9E
:103CC0009EF0FF0E1015146F000E1115156F000EEB
:103CD0001215166F000E1315176F0C511411186F73
:103CE0000D511511196F0E5116111A6F0F51171131
:103CF0001B6F045118111C6F055119111D6F0651CE
:103D00001A111E6F07511B111F6F00511C11F06F0C
:103D100001511D11F16F02511E11F26F03511F115C
:103D2000F36FFF0EEC15006F000EED15016F000E26
:103D3000EE15026F000EEF15036F00C103F1026B69
:103D4000016B006B21EEECF0000EDE14046FFF0E31
:103D5000DE14056F000EDE14066F000EDE14076F12
:103D600006C107F105C106F104C105F1046BECC100
:103D700008F1EDC109F1EEC10AF1EFC10BF109C182
:103D800008F10AC109F10BC10AF10B6B000E08150D
:103D90000C6FFF0E09150D6F000E0A150E6F000E49
:103DA0000B150F6FECC110F1EDC111F1EEC112F165
:103DB000EFC113F1190EE2EF9EF0D89013331233D6
:103DC00011331033E82EDDEF9EF0FF0E1015146F47
:103DD000000E1115156F000E1215166F000E13153B
:103DE000176F0C511411186F0D511511196F0E51D9
:103DF00016111A6F0F5117111B6F045118111C6FF8
:103E0000055119111D6F06511A111E6F07511B1113
:103E10001F6F00511C11EC6F01511D11ED6F02510C
:103E20001E11EE6F03511F11EF6F00EC80F019EFC0
:103E30009FF0120022C03AF023C03BF024C03CF0B7
:103E400025C03DF026C03EF027C03FF028C040F01E
:103E500029C041F041BE2FEF9FF032EF9FF0010EDD
:103E600033EF9FF0000E386E396A38503910D8B4ED
:103E70003CEF9FF03EEF9FF04EEF9FF0411E401E43
:103E80003F1E3E1E3D1E3C1E3B1E3A6C000E3B225A
:103E90003C223D223E223F22402241220001F4BF2B
:103EA00054EF9FF056EF9FF057EF9FF0F593F4BF5C
:103EB00064EF9FF0F45106E1F305D8B062EF9FF094
:103EC00064EF9FF06AEF9FF0000E356E010E346EC6
:103ED0006EEF9FF0F3C034F0F4C035F0DBC136F084
:103EE000DCC137F038503910D8A479EF9FF07BEF60
:103EF0009FF082EF9FF0F5A580EF9FF082EF9FF09B
:103F000085EF9FF03606D8A03706000E436E1F0ED1
:103F1000426E000E0201AD6F0AEFA0F04206D8A07B
:103F200043068E0E4224D96E020E4320DA6E3AC04A
:103F300005F03BC006F03CC007F03DC008F03EC0B5
:103F400009F03FC00AF040C00BF041C00CF00A0E6F
:103F50000D6E000E0E6E000E0F6E000E106E000E37
:103F6000116E000E126E000E136E000E146ED1EC68
:103F7000B0F005C02AF006C02BF007C02CF008C036
:103F80002DF009C02EF00AC02FF00BC030F00CC08D
:103F900031F02AC017F02CC018F0ECECC2F017502A
:103FA000300FDF6E3406D8A035063606D8A03706A7
:103FB0003AC005F03BC006F03CC007F03DC008F039
:103FC0003EC009F03FC00AF040C00BF041C00CF009
:103FD0000A0E0D6E000E0E6E000E0F6E000E106EAD
:103FE000000E116E000E126E000E136E000E146E97
:103FF0009AECAEF005C03AF006C03BF007C03CF0CA
:1040000008C03DF009C03EF00AC03FF00BC040F0D0
:104010000CC041F043BE15EFA0F0435008E142044C
:10402000D8A015EFA0F017EFA0F048EFA0F03A509D
:104030003B103C103D103E103F1040104110D8A4E2
:1040400024EFA0F026EFA0F08EEF9FF035BE33EF07
:10405000A0F0355006E13404D8B031EFA0F033EFD2
:10406000A0F08EEF9FF037BE3EEFA0F0375008E192
:104070003604D8A03EEFA0F040EFA0F048EFA0F04B
:104080000001F5B346EFA0F048EFA0F08EEF9FF0EF
:1040900038503910D8A44FEFA0F051EFA0F059EFED
:1040A000A0F00001F5A557EFA0F059EFA0F077EFD1
:1040B000A0F04206D8A0430638503910D8A463EFC8
:1040C000A0F065EFA0F06BEFA0F0000E336E2B0EAA
:1040D000326E6FEFA0F0000E336E2D0E326E8E0E2C
:1040E0004224D96E020E4320DA6E32C0DFFF20C0B8
:1040F00015F021C016F08E0E4224176E020E4320DA
:10410000186E36C019F037C01AF043ECBAF015C07B
:1041100020F016C021F012000001F4BF92EFA0F0D1
:1041200094EFA0F095EFA0F0F593F4BFA2EFA0F00C
:10413000F45106E1F305D8B0A0EFA0F0A2EFA0F093
:10414000A8EFA0F0000E386E010E376EACEFA0F0B5
:10415000F3C037F0F4C038F0DBC139F0DCC13AF01D
:10416000F5A9B5EFA0F0B7EFA0F0BBEFA0F0FE0E01
:104170003926FF0E3A2222C03BF023C03CF024C077
:104180003DF025C03EF026C03FF027C040F028C0DB
:1041900041F029C042F0000E446E1F0E436E000E27
:1041A0000201AD6F87EFA1F04306D8A044060F0EC1
:1041B0003B14456E466A46BEE7EFA0F0465009E163
:1041C0000A0E455CD8A0E7EFA0F0E9EFA0F0F1EF10
:1041D000A0F0570E4524456E000E4620466EF7EFC0
:1041E000A0F0300E4524456E000E4620466EBF0EF0
:1041F0002B6EFF0E2C6E2A502D6E2E6A2B502D2604
:104200002C502E222E500AE11A0E2D5CD8A00BEF56
:10421000A1F00EEFA1F0010E0FEFA1F0000E336E32
:10422000346A33503410D8B418EFA1F01AEFA1F06B
:104230004AEFA1F09F0E2B6EFF0E2C6E200E451044
:104240002D6E000E46102E6E2B502D262C502E2239
:104250002E500AE11A0E2D5CD8A031EFA1F034EFF8
:10426000A1F0010E35EFA1F0000E356E366A355023
:104270003610D8B43EEFA1F040EFA1F04AEFA1F024
:1042800045C00BF046C00CF0C0ECC0F00BC045F0D0
:104290000CC046F08E0E4324D96E020E4420DA6E16
:1042A00045C0DFFF3706D8A038063906D8A03A0641
:1042B0003BC02BF03CC02CF03DC02DF03EC02EF09A
:1042C0003FC02FF040C030F041C031F042C032F06A
:1042D000050E74EFA1F0D8903232313230322F32E5
:1042E0002E322D322C322B32E82E6BEFA1F02BC068
:1042F0003BF02CC03CF02DC03DF02EC03EF02FC056
:104300003FF030C040F031C041F032C042F044BE16
:1043100093EFA1F0445009E1020E435CD8A093EF63
:10432000A1F095EFA1F0C6EFA1F03B503C103D107D
:104330003E103F10401041104210D8A4A2EFA1F04F
:10434000A4EFA1F0D4EFA0F038BEB1EFA1F0385047
:1043500006E13704D8B0AFEFA1F0B1EFA1F0D4EF90
:10436000A0F03ABEBCEFA1F03A5008E13904D8A061
:10437000BCEFA1F0BEEFA1F0C6EFA1F00001F5B3D4
:10438000C4EFA1F0C6EFA1F0D4EFA0F00001F5A9B1
:10439000CCEFA1F0CEEFA1F0E4EFA1F04306D8A05E
:1043A00044068E0E4324D96E020E4420DA6E2AC0D3
:1043B000DFFF4306D8A044068E0E4324D96E020EBA
:1043C0004420DA6E300EDF6E20C015F021C016F0EA
:1043D0008E0E4324176E020E4420186E39C019F059
:1043E0003AC01AF043ECBAF015C020F016C021F024
:1043F0001200010E0001626F000E616F000E646F0B
:10440000080E636F060E656F040E666F010E686F0F
:10441000000E676F690E056E000E066EE00E076EE9
:10442000020E086E000E0A6E060E096E13ECC2F044
:10443000FF0E02010015236E000E0115246E000E02
:104440000215256E000E0315266E23C026F0256A80
:10445000246A236A000E0015276EFF0E0115286ED0
:10446000000E0215296E000E03152A6E29C02AF0CF
:1044700028C029F027C028F0276A00C22BF001C20B
:104480002CF002C22DF003C22EF02CC02BF02DC058
:104490002CF02EC02DF02E6A000E2B142F6EFF0E66
:1044A0002C14306E000E2D14316E000E2E14326E50
:1044B00000C233F001C234F002C235F003C236F05C
:1044C000190E68EFA2F0D8903632353234323332DA
:1044D000E82E63EFA2F0FF0E3314376E000E341493
:1044E000386E000E3514396E000E36143A6E2F50A9
:1044F00037103B6E305038103C6E315039103D6EE5
:1045000032503A103E6E27503B103F6E28503C1000
:10451000406E29503D10416E2A503E10426E23508D
:104520003F1000016F6F24504010706F25504110F4
:10453000716F26504210726FFF0E1F14236E000E13
:104540002014246E000E2114256E000E2214266EF7
:1045500023C026F0256A246A236A000E1F14276EE2
:10456000FF0E2014286E000E2114296E000E221456
:104570002A6E29C02AF028C029F027C028F0276A0F
:104580001FC02BF020C02CF021C02DF022C02EF037
:104590002CC02BF02DC02CF02EC02DF02E6A000E5A
:1045A0002B142F6EFF0E2C14306E000E2D14316E56
:1045B000000E2E14326E1FC033F020C034F021C024
:1045C00035F022C036F0190EEBEFA2F0D89036325B
:1045D000353234323332E82EE6EFA2F0FF0E3314D8
:1045E000376E000E3414386E000E3514396E000E1E
:1045F00036143A6E2F5037103B6E305038103C6EE8
:10460000315039103D6E32503A103E6E27503B10FB
:104610003F6E28503C10406E29503D10416E2A508C
:104620003E10426E23503F10796F245040107A6F35
:10463000255041107B6F265042107C6F000E736F27
:10464000000E746F000E756F000E766F000E776FA0
:10465000000E786F0B0E176EFE0E186E080E1A6E97
:10466000060E196E95ECA4F00001606F6005D8A4E9
:104670003CEFA3F03EEFA3F057EFA3F0610E056E01
:10468000000E066E000E086E1C0E076E3BECC2F0AC
:104690000DECB9F00001606F6005D8A452EFA3F0F3
:1046A00054EFA3F057EFA3F0050E58EFA3F06051BD
:1046B0001200000E566E0201005101110211031189
:1046C000D8A465EFA3F067EFA3F070EFA3F0110E8D
:1046D0004718D8A46EEFA3F070EFA3F030EFA4F06A
:1046E00000050BE17F0E031901110211D8B47BEF15
:1046F000A3F07DEFA3F030EFA4F043280CE14428B1
:104700000AE1452808E14628D8B489EFA3F08BEFE9
:10471000A3F033EFA4F0000E4310486E000E4410D7
:10472000496E000E45104A6EFF0E46104B6E48282B
:104730000CE149280AE14A2808E14B28D8B4A3EF44
:10474000A3F0A5EFA3F033EFA4F0000E4310486EE2
:10475000000E4410496EFF0E45104A6EFF0E4610C3
:104760004B6E48280CE149280AE14A2808E14B2809
:10477000D8B4BDEFA3F0BFEFA3F033EFA4F0000E69
:104780004310486EFF0E4410496EFF0E45104A6EEE
:10479000FF0E46104B6E48280CE149280AE14A28D2
:1047A00008E14B28D8B4D7EFA3F0D9EFA3F033EF4B
:1047B000A4F043500019486E44500119496E455009
:1047C00002194A6E465003194B6E0C5148144C6E38
:1047D0000D5149144D6E0E514A144E6E0F514B142B
:1047E0004F6E4C504D104E104F10D8A4FAEFA3F05E
:1047F000FCEFA3F006EFA4F043C050F044C051F02A
:1048000045C052F046C053F00EEFA4F010C250F075
:1048100011C251F012C252F013C253F050C005F051
:1048200051C006F052C007F053C008F0BDECBFF015
:1048300005C054F006C055F054505510D8A423EFCD
:10484000A4F025EFA4F037EFA4F050C01FF051C042
:1048500020F052C021F053C022F0F9ECA1F0566EC6
:10486000565094EFA4F00B0E546EFE0E556E54C0CD
:1048700017F055C018F0080E1A6E000E196E95EC60
:10488000A4F0566E5604D8A448EFA4F04AEFA4F062
:1048900030EFA4F0450E066E000E056EF1ECC5F08B
:1048A000000E066E000E056EF1ECC5F0000E056EF2
:1048B000400E066E550E076EAA0E086EA2ECC5F0ED
:1048C000400E2CECC6F047502CECC6F0000E066EE5
:1048D000000E056EF1ECC5F000C205F001C206F055
:1048E00002C207F003C208F0A2ECC5F043C005F015
:1048F00044C006F045C007F046C008F0A2ECC5F081
:1049000000C2BAF201C2BBF202C2BCF203C2BDF2E3
:1049100043C0BEF244C0BFF245C0C0F246C0C1F2BF
:1049200047C0B7F230EFA4F0120002013AB59BEF96
:10493000A4F09DEFA4F0A0EFA4F0020EC4EFA5F048
:1049400059505A10D8B4A7EFA4F0A9EFA4F0BBEFC8
:10495000A4F059C0D9FF5AC0DAFFDECF1BF0DDCF7B
:104960001CF01BA0B6EFA4F0B8EFA4F0BBEFA4F0CE
:10497000030EC4EFA5F00C0E0E01E25D1A0EE35912
:10498000D8A0C5EFA4F0C7EFA4F0E1EFA4F0D2A641
:10499000CCEFA4F0CEEFA4F0D1EFA4F0040EC4EF5E
:1049A000A5F0C9ECA8F00C0E0E01E25D1A0EE35959
:1049B000D8A0DDEFA4F0DFEFA4F0E1EFA4F0B8EFB2
:1049C000A4F0CCECA7F005C01DF006C01EF01D50F1
:1049D0001E10D8A4EEEFA4F0F0EFA4F0F2EFA4F0D4
:1049E000B8EFA4F01DC0D9FF1EC0DAFFDECF1BF068
:1049F000DDCF1CF0010E1B12000E1C121DC0D9FFD2
:104A00001EC0DAFF1BC0DEFF1CC0DDFF20EE02F07F
:104A10001D50D9261E50DA22DECFE2FEDDCFE3FEA6
:104A200031ECC6F0060E3EECC6F017C0F6FF18C01B
:104A3000F7FF000EF86E0F0EF76403D00800F55074
:104A400005D0F6CFE9FFF7CFEAFFEF503EECC6F016
:104A5000010E17241B6E000E18201C6E1BC0F6FFE3
:104A60001CC0F7FF000EF86E0F0EF76403D00800AD
:104A7000F55005D0F6CFE9FFF7CFEAFFEF503EEC57
:104A8000C6F0020E17241B6E000E18201C6E1BC0F1
:104A9000F6FF1CC0F7FF000EF86E0F0EF76403D090
:104AA0000800F55005D0F6CFE9FFF7CFEAFFEF5049
:104AB0003EECC6F0030E17241B6E000E18201C6E71
:104AC0001BC0F6FF1CC0F7FF000EF86E0F0EF76458
:104AD00003D00800F55005D0F6CFE9FFF7CFEAFF85
:104AE000EF503EECC6F0040E17241B6E000E18208B
:104AF0001C6E1BC0F6FF1CC0F7FF000EF86E0F0EF9
:104B0000F76403D00800F55005D0F6CFE9FFF7CFE2
:104B1000EAFFEF503EECC6F0050E17241B6E000EA8
:104B200018201C6E1BC0F6FF1CC0F7FF000EF86EAD
:104B30000F0EF76403D00800F55005D0F6CFE9FF5B
:104B4000F7CFEAFFEF503EECC6F00E0184513EEC89
:104B5000C6F00E0185513EECC6F00E0182513EECCE
:104B6000C6F00E0183513EECC6F00E0180513EECC2
:104B7000C6F00E0181513EECC6F01A503EECC6F074
:104B800019503EECC6F0010E1200000E0001EA6F53
:104B9000000EE96F010E02015C27000E5D235E230B
:104BA0005F23010E0101E125E16F000EE221E26FBA
:104BB000040EE25DD8B0DFEFA5F0E1EFA5F0E5EF80
:104BC000A5F0040EE26F000EE16FE3C1EDF0E4C169
:104BD000EEF0ABEFA6F020EE33F0ED51D926EE511A
:104BE000DA22DE50DE10D8B4F8EFA5F0FAEFA5F027
:104BF0009EEFA6F0FF0EE56FFF0EE66F20EE33F09E
:104C0000ED51D926EE51DA22DECFE7F0DDCFE8F024
:104C1000E551E727E651E82320EE33F0ED51D926A0
:104C2000EE51DA22E7C0DEFFE8C0DDFF20EE33F010
:104C3000ED51D926EE51DA22DE50DE10D8A423EF52
:104C4000A6F025EFA6F09EEFA6F020EE2EF0ED5197
:104C5000D926EE51DA220D0EDE18D8A432EFA6F0D6
:104C600034EFA6F09EEFA6F0050EE56F000EE66F9E
:104C700020EE37F0ED51D926EE51DA22DF50E76F02
:104C8000E751E55DEB6FE651D8A0E605EC6FECBFB0
:104C90004EEFA6F04CEFA6F052EFA6F0000EEC6F30
:104CA000000EEB6FEBC0E5F020EE35F0ED51D926AC
:104CB000EE51DA22DECFE6F0DDCFE7F0E52B64EF50
:104CC000A6F0D890E637E737E52F61EFA6F00001B0
:104CD00020EE33F0ED51D926EE51DA22E6C0DEFFA8
:104CE000E7C0DDFF20EE37F0ED51D926EE51DA2294
:104CF000DF50D8B47EEFA6F080EFA6F090EFA6F0DC
:104D000020EE37F0ED51D926EE51DA2210EE37F0D1
:104D1000ED51E126EE51E222E750E56FE505DF6E49
:104D200020EE2EF0ED51D926EE51DA220C0EDF6E78
:104D3000EDC057F0EEC058F000EC80F0000120EE1E
:104D40002FF0ED51D926EE51DA22DECFEDF0DDCF96
:104D5000EEF0E94BEA2B0001ED51EE11D8B4B3EFC0
:104D6000A6F0B5EFA6F0C9EFA6F0E7C1E5F0E66B57
:104D7000E5BFE607E551E95DEA51800AE76FE651D4
:104D8000800AE759D8A0C7EFA6F0C9EFA6F0EBEF6D
:104D9000A5F012000001F4BFD0EFA6F0D2EFA6F00C
:104DA000D3EFA6F0F593F4BFE0EFA6F0F45106E1DF
:104DB000F305D8B0DEEFA6F0E0EFA6F0E6EFA6F040
:104DC000000E336E010E326EEAEFA6F0F3C032F041
:104DD000F4C033F0DBC134F0DCC135F022C036F072
:104DE00023C037F024C038F025C039F026C03AF08F
:104DF00027C03BF028C03CF029C03DF0000E3F6EBC
:104E00001F0E3E6E000E0201AD6F7DEFA7F03E0655
:104E1000D8A03F068E0E3E24D96E020E3F20DA6ED9
:104E200036C005F037C006F038C007F039C008F0CA
:104E30003AC009F03BC00AF03CC00BF03DC00CF09A
:104E40000A0E0D6E000E0E6E000E0F6E000E106E2E
:104E5000000E116E000E126E000E136E000E146E18
:104E600076ECB9F005C02AF006C02BF007C02CF094
:104E700008C02DF009C02EF00AC02FF00BC030F092
:104E80000CC031F02A50300FDF6E3206D8A0330646
:104E90003406D8A0350636C005F037C006F038C055
:104EA00007F039C008F03AC009F03BC00AF03CC036
:104EB0000BF03DC00CF00A0E0D6E000E0E6E000ED3
:104EC0000F6E000E106E000E116E000E126E000EB0
:104ED000136E000E146EABECB7F005C036F006C0D2
:104EE00037F007C038F008C039F009C03AF00AC0FE
:104EF0003BF00BC03CF00CC03DF03E503F10D8B42E
:104F000084EFA7F086EFA7F0B7EFA7F03650371081
:104F1000381039103A103B103C103D10D8A493EFD4
:104F2000A7F095EFA7F007EFA7F033BEA2EFA7F029
:104F3000335006E13204D8B0A0EFA7F0A2EFA7F0FB
:104F400007EFA7F035BEADEFA7F0355008E1340408
:104F5000D8A0ADEFA7F0AFEFA7F0B7EFA7F0000133
:104F6000F5B3B5EFA7F0B7EFA7F007EFA7F020C0B4
:104F700015F021C016F08E0E3E24176E020E3F2053
:104F8000186E34C019F035C01AF043ECBAF015C0F1
:104F900020F016C021F01200000E096E140E000160
:104FA000FB19D8A4D6EFA7F0D8EFA7F0BEEFA8F072
:104FB000000E056E000E066EC8EFA8F009500A0D2F
:104FC000000EF324D96E040EF420DA6EDECF07F063
:104FD000DDCF08F007B4EFEFA7F0F1EFA7F0BDEFDA
:104FE000A8F009500A0D000EF324D96E040EF42027
:104FF000DA6E000EDE6E000EDD6E09500A0D000E38
:10500000F324D96E040EF420DA6EDECF07F0DDCF84
:1050100008F0040E0712000E081209500A0D000EC7
:10502000F324D96E040EF420DA6E07C0DEFF08C048
:10503000DDFF09500A0D040EF324D96E040EF4208E
:10504000DA6EFF0EDE6E1F0EDD6E09500A0D060EC3
:10505000F324D96E040EF420DA6E000EDE6E000E1C
:10506000DD6E09500A0D080EF324D96E040EF420EB
:10507000DA6E59C0DEFF5AC0DDFF59505A10D8B45D
:1050800044EFA8F046EFA8F094EFA8F009500A0DFD
:10509000000E076E040E086EF3500726F450082227
:1050A00020EE06F05950D9265A50DA2207C0DEFF0A
:1050B00008C0DDFF20EE04F05950D9265A50DA22FC
:1050C000DECF07F0DDCF08F0070E0726000E08221E
:1050D00009500A0D020EF324D96E040EF420DA6E84
:1050E00007C0DEFF08C0DDFF09500A0D020EF324E1
:1050F000D96E040EF420DA6EDECF07F0DDCF08F0B3
:1051000007A085EFA8F087EFA8F0A9EFA8F0095055
:105110000A0D020EF324D96E040EF420DA6EDE2A94
:10512000000EDD22A9EFA8F009500A0D020EF324AB
:10513000D96E040EF420DA6E160EDE6E140EDD6EDD
:1051400009500A0D000EF3240001F96F040EF4203B
:10515000FA6F09500A0D000EF324596E040EF42064
:105160005A6E0001FB2B09500A0D000EF324056E48
:10517000040EF420066EC8EFA8F0092A130E096485
:10518000C4EFA8F0C6EFA8F0DEEFA7F0D8EFA7F0C5
:105190001200000120EE02F0F951D926FA51DA226C
:1051A000DECF0BF0DDCF0CF020EE04F05950D92605
:1051B0005A50DA22DECF0DF0DDCF0EF00B500D5C31
:1051C000136E0C500E58146ED8901334116E1434A4
:1051D000126EECEFA8F000F0D2AAF1EFA8F0F3EF16
:1051E000A8F0FFEFA8F01106D8A012061150121077
:1051F000D8A4FDEFA8F0FFEFA8F0EBEFA8F0D2BA2B
:1052000004EFA9F006EFA9F0AAEFA9F0140E0E0121
:10521000F56F160EF46F000120EE02F0F951D92659
:10522000FA51DA22DECFF0FEDDCFF1FE20EE04F0FF
:105230005950D9265A50DA22DECFF2FEDDCFF3FEE6
:10524000D298D28A13C005F014C006F0000E086E82
:10525000280E076E3CECC5F005C011F006C012F038
:1052600033EFA9F000F0D2AA38EFA9F03AEFA9F095
:1052700046EFA9F01106D8A0120611501210D8A4BA
:1052800044EFA9F046EFA9F032EFA9F0D2BA4BEF04
:10529000A9F04DEFA9F0AAEFA9F059C015F05AC036
:1052A00016F0000120EE02F0F951D926FA51DA2267
:1052B000DECF0FF0DDCF10F098EFA9F020EE02F076
:1052C0001550D9261650DA22DECF0BF0DDCF0CF0C8
:1052D0000F500B5E10500C5A20EE02F01550D926DC
:1052E0001650DA220BC0DEFF0CC0DDFF20EE04F00A
:1052F0001550D9261650DA22DECF0BF0DDCF0CF098
:105300000F500B5E10500C5A20EE04F01550D926A9
:105310001650DA220BC0DEFF0CC0DDFF20EE08F0D5
:105320001550D9261650DA22DECF15F0DDCF16F053
:1053300015501610D8A49FEFA9F0A1EFA9F05EEFC9
:10534000A9F0160E13240E01E26F140E1420E36F61
:10535000ABEFA9F0FF001200000E0B6E0101F43953
:105360000F0B096E0A6AD89009360A36D8900936AA
:105370000A36EC0E09240D6EFF0E0A200E6E0D503B
:105380000E10D8B4C6EFA9F0C8EFA9F089EFAAF0C3
:10539000020EFD6F180EFC6FF5A3D1EFA9F0D3EF4D
:1053A000A9F083EFAAF074EFAAF078ECC4F00C6EC9
:1053B0005BEFAAF00D500E10D8B4E1EFA9F0E3EFC7
:1053C000A9F0EDEFA9F00DC005F00EC006F0EBEC72
:1053D000C1F0000E0E6E000E0D6E010E0B6E74EF1E
:1053E000AAF00E5009E1030E0D5CD8A0FAEFA9F067
:1053F000FCEFA9F026EFAAF078ECC4F00C6E040ED6
:105400000C18D8A406EFAAF008EFAAF026EFAAF02D
:1054100063ECC2F005C0FCF106C0FDF1FD0E0D24E9
:105420000D6EFF0E0E200E6EB50E0101FC5D050E19
:10543000FD59D8A01EEFAAF020EFAAF0EDEFA9F0D9
:10544000050EFD6FB40EFC6FEDEFA9F0000E0E6EB1
:10545000000E0D6E000E0B6E74EFAAF078ECC4F027
:105460000C6E0D06D8A00E06010E0C643AEFAAF0E1
:105470003CEFAAF026EFAAF00C50FE0F0C6E0C5079
:10548000096E0A6A09500D5C0A500E58D8A04BEFFD
:10549000AAF04DEFAAF026EFAAF00CC005F0066ABC
:1054A000EBECC1F00C500D5C0D6E0E50D8A00E044C
:1054B0000E6EEDEFA9F00C50096E0A6A0A50000A50
:1054C000D8B465EFAAF02EEFAAF00950000AD8B4BC
:1054D000DAEFA9F0010AD8B474EFAAF0030AD8B43D
:1054E000F1EFA9F02EEFAAF00D06D8A00E060D28B8
:1054F00006E10E28D8A47FEFAAF081EFAAF0D5EF3D
:10550000A9F08BEFAAF00DC005F00EC006F0EBEC91
:10551000C1F0010E0B6E0B50120002013A913A9548
:105520003A991DECC1F0000E02013D6F000E3C6F78
:10553000000E0101E66F000EE56F000ED26E0E0147
:10554000FDB5A5EFAAF0A7EFAAF09FEFAAF0D2B69B
:10555000ACEFAAF0AEEFAAF0A7EFAAF0B4EFAAF072
:1055600002013A933DECBEF060BCB9EFAAF0BBEF8C
:10557000AAF0B0EFAAF0000E0E01FE6F00F000F0EE
:1055800000F0A00E0E01FE6FFDA1C9EFAAF0CBEF57
:10559000AAF0C4EFAAF00D0EA06F00F0B30E0E013A
:1055A000A26F00F0000E0E01A36F00F0150E0E01A9
:1055B000A46F00F0000E0E01A76F120EA66F00F090
:1055C000140E0E01E56F160EE46F1F0EE76FE6690D
:1055D000000EE96F000EE86F140EEB6F150EEA6F08
:1055E000000E7B6E000E7A6E140EE36F160EE26FE5
:1055F000140EED6F150EEC6F050EAB6FEE0EAA6F6D
:1056000009ECC6F005C016F006C017F016C0D9FFA9
:1056100017C0DAFFDF500E01846F00F020EE01F0BA
:105620001650D9261750DA22DF500E01856F00F090
:1056300020EE02F01650D9261750DA22DF500E0164
:10564000826F00F020EE03F01650D9261750DA22B0
:10565000DF500E01836F00F020EE04F01650D926C3
:105660001750DA22DF500E01806F00F020EE05F0B7
:105670001650D9261750DA22DF500E01816F00F044
:10568000AB0E0E01D86F040ED26E010E086E000E26
:10569000076E000E14ECC5F0010E086E100E076EBA
:1056A000100E14ECC5F01D0E086E4A0E076E140E97
:1056B00014ECC5F0F4ECC3F0590E0E01FB6F000EB4
:1056C000086E120E076E120E14ECC5F01200000EDA
:1056D0001A6E000E196E000E136E000E126E73EF2E
:1056E000ABF00C4A0D2A010E186E0CC0F6FF0DC06F
:1056F000F7FF000EF86E0800F550200AD8B483EFCB
:10570000ABF085EFABF0A4EFABF0F70E0E6EFF0E33
:105710000F6E0CC0F6FF0DC0F7FF000EF86E08000C
:10572000F550106E116A0E5010260F5011221150B4
:1057300009E1050E105CD8A0A0EFABF0A2EFABF032
:10574000A4EFABF0000E186E18C014F0156A1450D8
:105750001510D8A4AEEFABF0B0EFABF071EFABF03B
:10576000BAEFABF0000E136E010E126E0C4A0D2A4A
:10577000F3EFABF00CC0F6FF0DC0F7FF000EF86EB4
:105780000800F5500E6E0F6A0F50000AD8B4CBEF28
:10579000ABF0F3EFABF00E502B0AD8B4B6EFABF092
:1057A000060AD8B4B2EFABF0F3EFABF019C005F0D6
:1057B0001AC006F0000E086E0A0E076E3CECC5F02B
:1057C0000CC0F6FF0DC0F7FF000EF86E0800F55094
:1057D000055E000E065A300E0524196E000E0620D6
:1057E0001A6EB6EFABF0D00E0E6EFF0E0F6E0CC041
:1057F000F6FF0DC0F7FF000EF86E0800F550106EB2
:10580000116A0E5010260F50112211500AE10A0E93
