:020000040000FA
:1000000080312328203400347E1480310B1F2128B6
:100010002100111E15282000111E1528230062083A
:100020008A0061080A00803121282100911E2128C0
:100030002000911E2128230060088A005F080A0022
:1000400080317E100900803125289831C920803107
:10005000DD002300803102208031E3008031032065
:100060008031E400FC014D308400003085000F3009
:100070009831E820803161308400013085000E30F5
:100080009831E8208031BF308400013085001A307B
:100090009831E820803120308400023085004C30D7
:1000A0009831E8208031A030840002308500403053
:1000B0009831E820803120308400033085004030C2
:1000C0009831E8208031A030840003308500403032
:1000D0009831E8207E1020008631602E2100AF1F6D
:1000E0007F2880302A02BD302B3B0E302C3BFF3066
:1000F0002D3BFF302E3BFF302F3B031C9728210068
:10010000AF1BA1282F08031D97282E08031D972831
:100110002D08031D9728013028027B30293B9D3094
:100120002A3B40302B3BF1302C3B031CA128FF30F5
:100130002100AB00FF30AA00FF30A900FF30A8006B
:10014000080080302100B200A230B3004330B40078
:10015000C730B500FF30B600FF30B700FF30B80041
:10016000FF30B900A830860000308700403FB2075A
:10017000413FB33D423FB43D433FB53D443FB63DB3
:10018000453FB73D463FB83D473FB93D390822009E
:10019000AC00210038082200AB0021003708220003
:1001A000AA00210036082200A900210035082200FB
:1001B000A800210034082200A700210033082200F3
:1001C000A600210032082200A50000302000B9005E
:1001D0000030B8000030B7000030B6000030B50085
:1001E0000130B4005130B3008030B2002200250845
:1001F0002000BA00220026082000BB0022002708A9
:100200002000BC00220028082000BD002200290890
:100210002000BE0022002A082000BF0022002B0878
:100220002000C00022002C082000C1008831AC2032
:100230008031200032082200B30020003308220061
:10024000B400200034082200B50020003508220048
:10025000B600200036082200B70020003708220030
:10026000B800200038082200B90020003908220018
:10027000BA0000302000B9000030B8000030B700EC
:100280000030B6000030B5000130B4005130B3008A
:100290008030B200220025082000BA002200260883
:1002A0002000BB00220027082000BC0022002808F4
:1002B0002000BD00220029082000BE0022002A08DC
:1002C0002000BF0022002B082000C00022002C08C4
:1002D0002000C1009031C520803120003508220067
:1002E000C600200034082200C50020003308220088
:1002F000C400200032082200C300C61F97298030A6
:10030000C3075130C43D0130C53D0030C63DFF300C
:10031000B307FF30B43DFF30B53DFF30B63DFF3091
:10032000B73DFF30B83DFF30B93DFF30BA3D073033
:100330002000B200B301B401B501B601B701B801A4
:10034000B90103302100B2000030B3000030B40026
:100350000030B5000030B6000030B7000030B80003
:100360000030B9003330860001308700403FB207CB
:10037000413FB33D423FB43D433FB53D443FB63DB1
:10038000453FB73D463FB83D473FB93D390820009E
:10039000C100210038082000C000210037082000DB
:1003A000BF00210036082000BE00210035082000D3
:1003B000BD00210034082000BC00210033082000CB
:1003C000BB00210032082000BA009031C5208031E6
:1003D000200033082200AE00200032082200AD00C9
:1003E000AE1FF6290730AD070030AE3D00302000CB
:1003F000B9000030B8000030B7000030B60000305F
:10040000B5000230B4003A30B300B130B20022007F
:1004100033082000BA00220034082000BB0022006C
:1004200035082000BC00220036082000BD00220054
:1004300037082000BE00220038082000BF0022003C
:1004400039082000C00022003A082000C10088318D
:10045000AC208031200035082200A30020003408A1
:100460002200A200200033082200A1002000320850
:100470002200A00000302000B9000030B800003099
:10048000B7000030B6000030B5000230B4003A309A
:10049000B300B130B200220033082000BA002200BD
:1004A00034082000BB00220035082000BC002200D8
:1004B00036082000BD00220037082000BE002200C0
:1004C00038082000BF00220039082000C0002200A8
:1004D0003A082000C1009031C52080312000350845
:1004E0002200D800200034082200D7002000330862
:1004F0002200D600200032082200D500D81F902A02
:10050000B130D5073A30D63D0230D73D0030D83D26
:10051000FF30A007FF30A13DFF30A23DFF30A33DDB
:100520000030F7000030F6008E30F500AC30F400FB
:100530005808FB005708FA005608F9005508F8005B
:1005400088312A20803177082200CE007608CD003D
:100550007508CC007408CB0004304B064C044D04E5
:100560004E04031DBC2AFF302200CB07FF30CC3DD8
:10057000FF30CD3DFF30CE3D22004E082000B500BB
:1005800022004D082000B40022004C082000B300D7
:1005900022004B082000B2000030B9000030B80043
:1005A0008E30B700AC30B6009931F1218031200097
:1005B00032082200D502200033082200D63B20005A
:1005C00034082200D73B200035082200D83B0030F9
:1005D000F7000030F6000530F500B530F40058089B
:1005E000FB005708FA005608F9005508F800883152
:1005F0002A20803177082200D2007608D1007508C1
:10060000D0007408CF0019304F0650045104520432
:10061000031D132BFF302200CF07FF30D03DFF30EA
:10062000D13DFF30D23D220052082000B50022000B
:1006300051082000B400220050082000B30022001E
:100640004F082000B2000030B9000030B80005307B
:10065000B700B530B6009931F12180312000320861
:100660002200D502200033082200D63B20003408A7
:100670002200D73B200035082200D83B0030F7008D
:100680000030F6000130F5006D30F4005808FB0032
:100690005708FA005608F9005508F80088312A2052
:1006A000803177082200CA007608C9007508C800A2
:1006B0007408C70004304706480449044A04031D6F
:1006C0006A2BFF302200C707FF30C83DFF30C93D0D
:1006D000FF30CA3D22004A082000B5002200490828
:1006E0002000B400220048082000B3002200470880
:1006F0002000B2000030B9000030B8000130B7006F
:100700006D30B6009931F12180312000320822008D
:10071000D502200033082200D63B200034082200F6
:10072000D73B200035082200D83BA4014A084904E1
:1007300048044704031DAA2B5208510450044F04D7
:10074000031DA82B4E084D044C044B04031DAA2B7B
:10075000A401A40A24082100B200B3013208220037
:10076000B100210033082200B200550831072100F2
:10077000B20022005608323D2100B30032083B3E51
:100780002200AF0000302100333D2200B0003108CC
:100790006D3E2100B20001302200323D2100B30045
:1007A00022003008803A2100B4003308803A340235
:1007B000031DDD2B320822002F02031CF02B220028
:1007C00031086D3E2100B20001302200323D21008F
:1007D000B30032082200AF02210033082200B03BF0
:1007E000220047082100B200220048082100B3007F
:1007F000220049082100B40022004A082100B50067
:1008000022004F082100B600220050082100B70046
:10081000220051082100B800220052082100B9002E
:100820000230B635B70DB80DB90D890B112C220069
:100830004E082000B50022004D082000B400220020
:100840004C082000B30022004B082000B20000300A
:10085000B9000030B8000030B7006430B6009931FC
:10086000F1218031200032082100B6072000330832
:100870002100B73D200034082100B83D2000350894
:100880002100B93D3608B2073708B33D3808B43DFA
:100890003908B53D3208BA003308BB003408BC0043
:1008A0003508BD000030BD1BFF30BE00BF00C000DA
:1008B000C100220020082000B200220021082000F0
:1008C000B300220022082000B400220023082000E8
:1008D000B5000030B51BFF30B600B700B800B90056
:1008E0000030C1000030C0000030BF000030BE004A
:1008F0000030BD000030BC000130BB009030BA00B9
:100900009B31512380312000323086000030870037
:10091000403F2100BA07413FBB3D423FBC3D433F02
:10092000BD3D443FBE3D453FBF3D463FC03D473FC7
:10093000C13D41082200C200210040082200C10040
:1009400021003F082200C00021003E082200BF0015
:1009500021003D082200BE0021003C082200BD000D
:1009600021003B082200BC0021003A082200BB0005
:10097000D301D40154088500530884003030840723
:100980009830853D00082100B200B301B401B501E3
:1009900022005808803A2100B6003508803A360215
:1009A0002200031DE32C2100340822005702031DFE
:1009B000E32C2100330822005602031DE32C210002
:1009C000320822005502031C072D540885005308E5
:1009D0008400303084079830853D00082100B20043
:1009E000B301B401B50132082200D5022100330859
:1009F0002200D63B210034082200D73B21003508D5
:100A00002200D83B0130D3070030D43DBA2C540823
:100A1000803A2100B20080303202031D122D0A30CC
:100A200022005302031C232DF4302200D307FF3091
:100A3000D43D0130BB070030BC3DBD3DBE3DBF3D98
:100A4000C03DC13DC23D64302100B2000030B30062
:100A50000030B4000030B5000030B6000030B70000
:100A60000030B8000030B9003B308600013087000C
:100A7000403FB207413FB33D423FB43D433FB53DE8
:100A8000443FB63D453FB73D463FB83D473FB93D82
:100A9000B91B602D3908031D97283808031D9728B6
:100AA0003708031D97283608031D97283508031DAE
:100AB00097283408031D972880303302031897289D
:100AC00064302100B2000030B3000030B4000030C8
:100AD000B5000030B6000030B7000030B80000307C
:100AE000B9003B30860001308700403FB207413FEC
:100AF000B33D423FB43D433FB53D443FB63D453F26
:100B0000B73D463FB83D473FB93DB91F972D8030AF
:100B10003302FF30343BFF30353BFF30363BFF3094
:100B2000373BFF30383BFF30393B031C972822000E
:100B30003B08643E2100B200003022003C3D210011
:100B4000B30030088600310887004A313208C03FC0
:100B50003308C13F22005308023E2100B20000309A
:100B60002200543D2100B300300886003108870080
:100B700048313208C03F3308C13F22005508013ECA
:100B80002100B20000302200563D2100B3003008A1
:100B900086003108870046313208C03F3308C13F24
:100BA00030088600310887004C3122002D08C03FF4
:100BB0002E08C13F210030088600310887004E31E1
:100BC00022002F08C03F3008C13F0030F70000303E
:100BD000F6000E30F5001030F4004608FB00450822
:100BE000FA004408F9004308F80088312A208031CF
:100BF0002100300886003108870044317408C03F66
:100C00007508C13F0030A3000030A2000030A100F1
:100C10003C30A0000030F7000030F6000030F50056
:100C20003C30F40022004608FB004508FA00440866
:100C3000F9004308F80088312A2080317708210024
:100C4000A7007608A6007508A5007408A4009D31C9
:100C50006325803121003008860031088700423149
:100C60002008C03F2108C13F0030A3000030A2008F
:100C70000030A1003C30A000220046082100A7005F
:100C8000220045082100A600220044082100A500FA
:100C9000220043082100A4009D3163252100300873
:100CA0008600310887002008C03F2108C13F00307E
:100CB000AB000030AA000030A9000030A8000800F6
:100CC0002300B901BA01BC0103302100E900690821
:100CD0002300B000B13086000130870008302100C9
:100CE000E90000301E00E90B722E99310721863190
:100CF000B1309031002086312100E90069082300DD
:100D0000BB0064009831EE208631003A0319812E31
:100D100099319C2186312100E90069082300BD003A
:100D200010303D06031DA02E3A08031DB02EBA0157
:100D3000BA0A01302100E90069082300BC07B12E7E
:100D400001302100E90069082300BC073A080319B3
:100D5000B02E3D082100E90069082300B000BC0165
:100D6000BA0175303006031DF72F14303C06031905
:100D7000BD2E1A303C06031DDD2E3A08031D812EC0
:100D80003D082100E90069082300B9063D089931B2
:100D900041218631643E2100E90000300318013012
:100DA000EA0023003B080A3E86000230870021004B
:100DB0006908C03F6A08C13F812E15303C060319FF
:100DC000E52E1B303C06031D052F3A08031D812E1E
:100DD0003D082100E90069082300B9063D08993162
:100DE00041218631FF3E2100E900FF300318003029
:100DF000EA0023003B08083E8600023087002100FD
:100E00006908C03F6A08C13F812E16303C060319AD
:100E10000D2F1C303C06031DCF2F3A08031D812ED9
:100E20003D082100E90069082300B9063D08993111
:100E3000412186312100E900EA0123003B08063EFA
:100E400086000230870021006908C03F6A08C13F60
:100E500023003B089331A423863122005908230044
:100E6000B10022005A082300B20022005B082300D0
:100E7000B30022005C082300B40022005D082300B8
:100E8000B50022005E082300B60022005F082300A0
:100E9000B700220060082300B8000030B10700301E
:100EA000B23DEA30B33D2430B43D0030B53D0030B2
:100EB000B63D0030B73D0030B83DB1309031002034
:100EC00086312100E90069082300BB003B080A3E87
:100ED00086000230870001089C3E9931C32186318B
:100EE0002100E90069082300BE003E089931122163
:100EF0008631103023003E06031D822F3E089931B3
:100F00001221863123003E082100E90069082300F0
:100F1000B9063B08083E8600023087000108013E02
:100F20009931C32186312100E90069082300BE0000
:100F30003E08993112218631103023003E06031DF0
:100F4000A52F3E0899311221863123003E08210049
:100F5000E90069082300B9063B08063E8600023016
:100F6000870001089931C32186312100E900690811
:100F70002300BE003E089931122186311030230033
:100F80003E06031DC72F3E089931122186312300EA
:100F90003E082100E90069082300B906812E2D30A2
:100FA0003C06031DF22F3A08031D812E3D08210047
:100FB000E90069082300B90639082100E900690839
:100FC0002300BE003E0899311221863110302300E3
:100FD0003E06031DEF2F3E08993112218631230072
:100FE000B901812E3D08993112218631812E3D08AB
:100FF000993112218631812E23001D121D16080001
:10100000993169210800023071067204031D0F280E
:1010100073081C3EF1000030743DF2000800FF3000
:101020007107F500F50AD530F6000A30F7001B28E5
:10103000770DF70CF60CF50B182801307605F80043
:1010400000307705F90078081E3EF1000030793D48
:10105000F20008002000C401F71F3B28F409F5093D
:10106000F609F709F40A0319F50A0319F60A031930
:10107000F70AC401C40AFB1F4C28F809F909FA0948
:10108000FB09F80A0319F90A0319FA0A0319FB0AFA
:101090000130C2004208C4060030C8000030C7005A
:1010A0000030C6000030C50077087604750474046B
:1010B00003199528C301C30AF71B6A280130F435C8
:1010C000F50DF60DF70D890B5F280130C2004208BF
:1010D000C3075C280130C535C60DC70DC80D890B87
:1010E0006B2877087B02031D7F2876087A02031D90
:1010F0007F2875087902031D7F2874087802031C75
:101100008A287408F8027508F93B7608FA3B7708D4
:10111000FB3B45140130F736F60CF50CF40C890B4B
:101120008B280130C302031D6A2844080319A32831
:10113000C509C609C709C809C50A0319C60A03199A
:10114000C70A0319C80A4808F7004708F600460806
:10115000F5004508F4000800F30132308600003045
:101160008700473FF100F11FD6282000B209B309DC
:10117000B409B509B609B709B809B909B20A031D16
:10118000D428B30A031DD428B40A031DD428B50AF1
:10119000031DD428B60A031DD428B70A031DD4287A
:1011A000B80A031DD428B90AF301F30A3A308600BD
:1011B00000308700473FF100F11F01292000BA09E4
:1011C000BB09BC09BD09BE09BF09C009C109BA0AEA
:1011D000031DFD28BB0A031DFD28BC0A031DFD28B5
:1011E000BD0A031DFD28BE0A031DFD28BF0A031DFD
:1011F000FD28C00A031DFD28C10A0130F100710855
:10120000F30674308600003087000830F1000030AB
:101210001E00F10B08292000320833043404350481
:10122000360437043804390403196C29F201F20A30
:10123000B91B2729B235B30DB40DB50DB60DB70DD9
:10124000B80DB90D0130F1007108F2071829F43515
:10125000F50DF60DF70DF80DF90DFA0DFB0D39082A
:101260004102031D4D2938084002031D4D2937084E
:101270003F02031D4D2936083E02031D4D29350846
:101280003D02031D4D2934083C02031D4D2933083E
:101290003B02031D4D2932083A02031C6029320823
:1012A000BA023308BB3B3408BC3B3508BD3B3608AB
:1012B000BE3B3708BF3B3808C03B3908C13B7414FC
:1012C000B936B80CB70CB60CB50CB40CB30CB20CE8
:1012D0000130F202031D2729730803198D29F4092F
:1012E000F509F609F709F809F909FA09FB09F40AF9
:1012F000031D8D29F50A031D8D29F60A031D8D296D
:10130000F70A031D8D29F80A031D8D29F90A031D0B
:101310008D29FA0A031D8D29FB0A74082000B200EA
:101320007508B3007608B4007708B5007808B600F1
:101330007908B7007A08B8007B08B9000800FE30C9
:101340002100A000FF30A100FF30A200FF30A30069
:10135000FF30A400FF30A500FF30A600FF30A7003B
:101360004230860000308700403FA007413FA13D4A
:10137000423FA23D433FA33D443FA43D453FA53DE1
:10138000463FA63D473FA73DA71BDF292708031D72
:10139000882A2608031D882A2508031D882A240870
:1013A000031D882A2308031D882A2208031D882A72
:1013B0002108031D882A893020020318882A20006A
:1013C00043082100B900200042082100B800380875
:1013D000BC3EA000FF30393DA100210DA10CA00CA6
:1013E000210DA10CA00C2008B0002108B100380884
:1013F000BC3EA000FF30393DA10003302005A20013
:1014000000302105A30022082304031D172AFF3002
:10141000B007FF30B13D20004A080319212A4A08CD
:10142000860087010130C03F0030C13F212A2000E3
:101430004A080319212A4A08860087010030C03F64
:10144000C13F210030082000B200210031082000F7
:10145000B300890D893B8909B400B5000030B9009B
:101460000130B8005130B7008030B6009931F12119
:101470008931200032082100A0002000330821001B
:10148000A100200034082100A2002000350821001E
:10149000A3003808BA3E2000B200FF302100393DD9
:1014A0002000B300B401B31BB4033408B50001300D
:1014B000B900E130B8003330B7008030B600993160
:1014C000F121200032082100A0072000330821006C
:1014D000A13D200034082100A23D20003508210054
:1014E000A33D20082000C200210021082000C300E5
:1014F000210022082000C400210023082000C5008C
:101500000030C51BFF30C600C700C800C900080076
:1015100020004A08031D942A2100BA01BB01BA30F9
:10152000A00020082000CA009030F1000130F20035
:1015300042089C3EF300FF30433DF4009B31E12321
:10154000893172082100B3007108B2000030200018
:10155000B9000030B8000030B7000030B6000030ED
:10156000B5000030B4000130B3009030B2009C30C0
:101570002100A000FF30A100FF30A200FF30A30037
:10158000FF30A400FF30A500FF30A600FF30A70009
:101590004230860000308700403FA007413FA13D18
:1015A000423FA23D433FA33D443FA43D453FA53DAF
:1015B000463FA63D473FA73D27082000C100210028
:1015C00026082000C000210025082000BF002100BF
:1015D00024082000BE00210023082000BD002100B7
:1015E00022082000BC00210021082000BB002100AF
:1015F00020082000BA009031C5208931200033082E
:101600002100BD00200032082100BC00BD1F102BAE
:10161000FF30B207FF30B33D9030BC070130BD3D15
:101620003C083D04031D232B20004A088600870147
:101630000130C03F0030C13F2100B601B701210099
:10164000B401B501912B3D08803AA0008030200202
:10165000031D2C2BC8303C02031C4A2B21003D08E3
:10166000803AA00081302002031D382B2C303C0230
:10167000031C432B03302100B6000030B700D430E8
:10168000BC07FE305E2B02302100B6000030B700F0
:1016900038305C2B21003D08803AA00080302002C9
:1016A000031D542B64303C02031C602B01302100CD
:1016B000B6000030B7009C30BC07FF30BD3D632B47
:1016C0002100B601B7013C083D04031D6F2B20002B
:1016D0004A08860087010030C03FC13F1F2B3D08EC
:1016E000A1003C08A000A136A00CA136A00C200847
:1016F000B4002108B5000330BC050030BD053C082E
:101700003D04031D852B0130862B0030A000A10174
:1017100020004A088600870121002008C03F2108D8
:10172000C13F20004A088600870121003308F200EB
:101730003208F1006130F3000030F400993181216A
:10174000893171082100A0007208A1003708F20059
:101750003608F1001830F3000030F400993181218F
:101760008931710821002007A2007208213DA300E1
:10177000403F2202A400413F233BA5002408B407B8
:101780002508B53D0030A0007730A1007630A200DA
:101790007C30A300FF30A400FF30A500FF30A6007E
:1017A000FF30A70034082000B200210035082000D7
:1017B000B300890D893B8909B400B500B600B700B4
:1017C000B800B9000030C1000030C0000030BF00D8
:1017D0000030BE000030BD000130BC005130BB0005
:1017E0008030BA009B31512389312000323086008D
:1017F00000308700403F2100A800413FA900423F40
:10180000AA00433FAB00443FAC00453FAD00463F1C
:10181000AE00473FAF0020004208B2004308B300CB
:101820004408B4004508B5004608B6004708B700AC
:101830004808B8004908B9000030C1000030C000B5
:101840000030BF000030BE000130BD00E130BC0000
:101850003330BB008030BA009B31512389312000E6
:101860003230860000308700403F2100A807413F0A
:10187000A93D423FAA3D433FAB3D443FAC3D453FC0
:10188000AD3D463FAE3D473FAF3D2808A007290884
:10189000A13D2A08A23D2B08A33D2C08A43D2D08FC
:1018A000A53D2E08A63D2F08A73D27082000C9000A
:1018B000210026082000C800210025082000C700BC
:1018C000210024082000C600210023082000C500B4
:1018D000210022082000C400210021082000C300AC
:1018E000210020082000C200080090310C208C311B
:1018F00022006B086C0403195D2F4630AE000030E7
:10190000AF000030B0000030B1000030B200003055
:10191000B3000030B4000030B50000302000B90042
:101920000030B8000030B7000030B6000130B5001C
:10193000E130B4008530B3005830B20022002008F6
:101940002000BA00220021082000BB00220022084B
:101950002000BC00220023082000BD002200240833
:101960002000BE00220025082000BF00220026081B
:101970002000C000220027082000C1008831AC20D0
:101980008C3120003230860000308700403F22003A
:10199000AE07413FAF3D423FB03D433FB13D443FC5
:1019A000B23D453FB33D463FB43D473FB53D3508A9
:1019B000CE003408CD003308CC003208CB0031080B
:1019C000CA003008C9002F08C8002E08C700470801
:1019D0002000C200220048082000C300220049085D
:1019E0002000C40022004A082000C50022004B0845
:1019F0002000C60022004C082000C70022004D082D
:101A00002000C80022004E082000C900CA01893108
:101A10009F218C3122002708803AAE00200049081F
:101A2000803A22002E02031D3D2D2000480822008E
:101A30002602031D3D2D2000470822002502031D1C
:101A40003D2D2000460822002402031D3D2D2000CC
:101A5000450822002302031D3D2D200044082200DA
:101A60002202031D3D2D2000430822002102031DF8
:101A70003D2D200042082200200203185B2DFF307C
:101A8000C707FF30C83DFF30C93DFF30CA3DFF30BA
:101A9000CB3DFF30CC3DFF30CD3DFF30CE3DE72C80
:101AA00001302200C7070030C83DC93DCA3DCB3DCB
:101AB000CC3DCD3DCE3D0130AE000030AF0000301A
:101AC000B0000030B1000030B2000030B300003090
:101AD000B4000030B5004730860001308700403F39
:101AE000AE07413FAF3D423FB03D433FB13D443F74
:101AF000B23D453FB33D463FB43D473FB53D350858
:101B00002000C900220034082000C8002200330849
:101B10002000C700220032082000C6002200310841
:101B20002000C500220030082000C40022002F0839
:101B30002000C30022002E082000C200CA01893103
:101B40009F218C3120004908803A2200B6002708E6
:101B5000803A36022000031DD52D220026082000E1
:101B60004802031DD52D2200250820004702031D31
:101B7000D52D2200240820004602031DD52D220069
:101B8000230820004502031DD52D22002208200035
:101B90004402031DD52D2200210820004302031D0D
:101BA000D52D2200200820004202031C502D2200C7
:101BB00047082100BE00220048082100BF00220083
:101BC00049082100C00022004A082100C10022006B
:101BD0004B082100C20022004C082100C300220053
:101BE0004D082100C40022004E082100C5006230CB
:101BF0009531CA258C3121003E082200B700210012
:101C00003F082200B800210040082200B90021004E
:101C100041082200BA00210042082200BB00210036
:101C200043082200BC00210044082200BD0021001E
:101C300045082200BE0047082100BE0022004808D7
:101C40002100BF00220049082100C00022004A08EC
:101C50002100C10022004B082100C20022004C08D4
:101C60002100C30022004D082100C40022004E08BC
:101C70002100C50058309531CA258C3121003E081D
:101C80002200BF0021003F082200C00021004008C0
:101C90002200C100210041082200C20021004208A8
:101CA0002200C300210043082200C4002100440890
:101CB0002200C500210045082200C600280829048A
:101CC000031DA82E20004D082200AE0020004E0863
:101CD0002200AF0020004F082200B0002000500872
:101CE0002200B1000030B11BFF30B200B300B400DD
:101CF000B5002E08B7072F08B83D3008B93D3108A8
:101D0000BA3D3208BB3D3308BC3D3408BD3D350803
:101D1000BE3D6108AE006208AF006308B000640811
:101D2000B1000030B11BFF30B200B300B400B50009
:101D30002E08BF072F08C03D3008C13D3108C23D05
:101D40003208C33D3308C43D3408C53D3508C63D9F
:101D50003E08803AAE004608803A2E02031DCA2E85
:101D600045083D02031DCA2E44083C02031DCA2E2D
:101D700043083B02031DCA2E42083A02031DCA2E25
:101D800041083902031DCA2E40083802031DCA2E1D
:101D90003F0837020318152F2708803AAE003E0887
:101DA000803A2E02031DEE2E3D082602031DEE2E64
:101DB0003C082502031DEE2E3B082402031DEE2ED7
:101DC0003A082302031DEE2E39082202031DEE2ECF
:101DD00038082102031DEE2E37082002031C5D2F58
:101DE0002708803AAE004608803A2E02031D122FC3
:101DF00045082602031D122F44082502031D122F39
:101E000043082402031D122F42082302031D122F30
:101E100041082202031D122F40082102031D122F28
:101E20003F082002031CAE2F5D2F2708803AAE002A
:101E30004608803A2E02031D372F45082602031D4F
:101E4000372F44082502031D372F43082402031DA2
:101E5000372F42082302031D372F41082202031D9A
:101E6000372F40082102031D372F3F082002031C93
:101E7000AE2F2708803AAE003E08803A2E02031D9E
:101E80005B2F3D082602031D5B2F3C082502031D26
:101E90005B2F3B082402031D5B2F3A082302031D1E
:101EA0005B2F39082202031D5B2F38082102031D16
:101EB0005B2F370820020318AE2F2A088600043053
:101EC00087000030C03FC13F20004D092200AE0016
:101ED00020004E092200AF0020004F092200B00070
:101EE000200050092200B100AE0A0319AF0A0319FD
:101EF000B00A0319B10A2B088600043087002E08A7
:101F0000C03F2F08C13F3008C23F3108C33F2C08F3
:101F10000319A52F6109AE006209AF006309B00083
:101F20006409B100AE0A0319AF0A0319B00A031914
:101F3000B10A2C088600043087002E08C03F2F0805
:101F4000C13F3008C23F3108C33F6908AE002D08C9
:101F50008600043087002E08810008002A088600C9
:101F6000043087000130C03F0030C13F6109AE003E
:101F70006209AF006309B0006409B100AE0A031939
:101F8000AF0A0319B00A0319B10A2B0886000430FE
:101F900087002E08C03F2F08C13F3008C23F3108DC
:101FA000C33F2C080319F72F20004D092200AE0073
:101FB00020004E092200AF0020004F092200B0008F
:101FC000200050092200B100AE0A0319AF0A03191C
:101FD000B00A0319B10A2C088600043087002E08C5
:101FE000C03F2F08C13F3008C23F3108C33F6A08D5
:101FF000AE002D088600043087002E0881000800FE
:102000002100C4004030C30043082000CC00210060
:1020100044089B31992308003C302100A2009830ED
:10202000A300A230A0002008F100D2309F31472742
:102030009031D2302100A00020082200E900A23017
:102040009D31DC25903120003808CD003908CE00C4
:10205000890D893B8909CF00D000A2302100A00062
:102060002008F100CB309F3147279031CB30210041
:10207000A00020082200EA0023004B0803198E2844
:1020800001302200EB000030EC0021002208840027
:102090002308850012002B3A0319682822088400BF
:1020A0002308850012002D3A0319682822088400AD
:1020B000230885000008D03EA000FF300318003040
:1020C000A100003021020A300319200203187928E8
:1020D000A2309D31DC259031200038082200E1003B
:1020E000200039082200E200890D893B8909E300BC
:1020F0008C28F03020004D072200E100F130200054
:102100004E3D2200E200FF3020004F3D2200E30060
:10211000FF302000503D2200E40099282200EB010E
:10212000EC010030E4000030E3000030E200003059
:10213000E1002100220884002308850012002C3AC7
:10214000031DAF280130A2070030A33D6230A0007C
:1021500020082000C400A2309E3191269031210039
:10216000220884002308850012002C3A031D080071
:102170000130A2070030A33D5830A0002008200005
:10218000C400A2309E3191260800F3013A30860047
:1021900000308700473FF100F11FEF282000BA0907
:1021A000BB09BC09BD09BE09BF09C009C109BA0AFA
:1021B000031DED28BB0A031DED28BC0A031DED28F5
:1021C000BD0A031DED28BE0A031DED28BF0A031D2D
:1021D000ED28C00A031DED28C10AF301F30A3230CD
:1021E000860000308700473FF100F11F16292000CC
:1021F000B209B309B409B509B609B709B809B909EB
:10220000B20A031D1629B30A031D1629B40A031DB9
:102210001629B50A031D1629B60A031D1629B70A81
:10222000031D1629B80A031D1629B90A2000320811
:1022300033043404350436043704380439040319EC
:102240006E29F201F20AB91B3229B235B30DB40D71
:10225000B50DB60DB70DB80DB90D0130F10071080F
:10226000F207232939084102031D5029380840028A
:10227000031D502937083F02031D502936083E022E
:10228000031D502935083D02031D502934083C0226
:10229000031D502933083B02031D502932083A021E
:1022A000031C62293208BA023308BB3B3408BC3B2A
:1022B0003508BD3B3608BE3B3708BF3B3808C03B3E
:1022C0003908C13BB936B80CB70CB60CB50CB40C18
:1022D000B30CB20C0130F202031D3229730803194A
:1022E0008F29BA09BB09BC09BD09BE09BF09C009CC
:1022F000C109BA0A031D8F29BB0A031D8F29BC0A15
:10230000031D8F29BD0A031D8F29BE0A031D8F29B6
:10231000BF0A031D8F29C00A031D8F29C10A20008F
:102320003A08B2003B08B3003C08B4003D08B500D1
:102330003E08B6003F08B7004008B8004108B900A1
:1023400008002100E40064080A3E8600023087008D
:10235000403FC600413FC7004608D0004708D100B3
:10236000890D893B8909D200D300D400D500D6005D
:10237000D7006408083E860002308700403FE50031
:10238000413FE6006608803AC60080304602031DE1
:10239000CB290C3065020318D0292100E61F182A2A
:1023A0000C30F1000030F20021006608F4006508EE
:1023B000F3009B31E123913172082100D9007108AB
:1023C000D8000C30F1000030F2006608F400650817
:1023D000F3009B310C23913172082100E600710853
:1023E000E500E61FFB29FF30D807FF30D93D0C3050
:1023F000E5070030E63D5808C6005908C700003020
:10240000C71BFF30C800C900CA00CB00CC00CD00FC
:102410004608D0074708D13D4808D23D4908D33D7A
:102420004A08D43D4B08D53D4C08D63D4D08D73D14
:1024300050082000C200210051082000C3002100E4
:1024400052082000C400210053082000C5002100CC
:1024500054082000C600210055082000C7002100B4
:1024600056082000C800210057082000C900E230AB
:102470002100C60046082000CA0089319F21913101
:10248000200042082100DA00200043082100DB0080
:10249000200044082100DC00200045082100DD0068
:1024A000200046082100DE00200047082100DF0050
:1024B000200048082100E000200049082100E10038
:1024C0006608F2006508F1006308F4006208F30092
:1024D0009A315522913171082100C6007208C70057
:1024E0007308C8007408C9000030C91BFF30CA0057
:1024F000CB00CC00CD004608DA074708DB3D480892
:10250000DC3D4908DD3D4A08DE3D4B08DF3D4C0817
:10251000E03D4D08E13D6408063E8600023087003C
:10252000403FC600413FC7004608FF3EC800FF309D
:10253000473DC90048082000B2002100490820009A
:10254000B300890D893B8909B400B500B600B70016
:10255000B800B9000030C1000030C0000030BF003A
:102560000030BE000030BD000130BC005130BB0067
:102570008030BA009B315123913120003208210074
:10258000DA07200033082100DB3D20003408210059
:10259000DC3D200035082100DD3D2000360821000B
:1025A000DE3D200037082100DF3D200038082100F3
:1025B000E03D200039082100E13D6408043E86002A
:1025C00002308700403FC600413FC7004608200058
:1025D000B200210047082000B300890D893B89091A
:1025E000B400B500B600B700B800B9000030C100B3
:1025F0000030C0000030BF000030BE000030BD0021
:102600000030BC000E30BB001030BA009B315123AB
:102610009131200032082100DA0720003308210020
:10262000DB3D200034082100DC3D2000350821007E
:10263000DD3D200036082100DE3D20003708210066
:10264000DF3D200038082100E03D2000390821004E
:10265000E13D6408023E860002308700403FC6002C
:10266000413FC70046082000B20021004708200073
:10267000B300890D893B8909B400B500B600B700E5
:10268000B800B9003C30BA00BB01BC01BD01BE01BD
:10269000BF01C001C1019B3151239131200032089B
:1026A0002100DA07200033082100DB3D2000340838
:1026B0002100DC3D200035082100DD3D20003608EA
:1026C0002100DE3D200037082100DF3D20003808D2
:1026D0002100E03D200039082100E13D640886002A
:1026E00002308700403FC600413FC7004608C8008F
:1026F0004708C9000030C91BFF30CA00CB00CC001E
:10270000CD00CE00CF004808DA074908DB3D4A0873
:10271000DC3D4B08DD3D4C08DE3D4D08DF3D4E08FD
:10272000E03D4F08E13D5A08BE005B08BF005C0871
:10273000C0005D08C1005E08C2005F08C3006008F9
:10274000C4006108C50008002800A00020089131DD
:10275000A121933121003E082800A50021003F0857
:102760002800A600210040082800A70021004108F9
:102770002800A800210042082800A90021004308E1
:102780002800AA00210044082800AB0021004508C9
:102790002800AC0025082200A000280026082200FE
:1027A000A100280027082200A200280028082200F3
:1027B000A300280029082200A40028002A082200DB
:1027C000A50028002B082200A60028002C082200C3
:1027D000A7000130A8000030A9003D302300A00070
:1027E00020082200AA003F302300A1002108220077
:1027F000AB0021302300A20022082200AC004330AD
:102800002300A30023082200AD008C3175249331EE
:1028100028002008103E860002308700403F230039
:10282000A000413FA100A11B6C2C28002008103EF5
:10283000860002308700403F2300A000413FA100F6
:10284000210828003E06031D292C2300200828000B
:102850003D0603196C2C3F0821022300A00028002C
:102860004008223B2300A10028004108233B23000D
:10287000A20028004208243B2300A3002008A40053
:102880002108A5002208A6002308A7000030A71BE6
:10289000FF30A800A900AA00AB0024082800A50268
:1028A000230025082800A63B230026082800A73B74
:1028B000230027082800A83B230028082800A93B5C
:1028C000230029082800AA3B23002A082800AB3B44
:1028D00023002B082800AC3B28003F082300A00061
:1028E000280040082300A100280041082300A2007E
:1028F000280042082300A3000030A31BFF30A400DF
:10290000A500A600A70020082800A5022300210892
:102910002800A63B230022082800A73B2300230809
:102920002800A83B230024082800A93B23002508F1
:102930002800AA3B230026082800AB3B23002708D9
:102940002800AC3B2530860004308700403F230040
:10295000A000413FA100423FA200433FA300443FEB
:10296000A400453FA500463FA600473FA70028001A
:102970002C0823002706031DE52C28002B08230024
:102980002606031DE52C28002A0823002506031D22
:10299000E52C2800290823002406031DE52C280027
:1029A000280823002306031DE52C28002708230000
:1029B0002206031DE52C2800260823002106031DFE
:1029C000E52C2800250823002006031DBB2D280028
:1029D00025082200A000280026082200A1002800C7
:1029E00027082200A200280028082200A3002800AF
:1029F00029082200A40028002A082200A500280097
:102A00002B082200A60028002C082200A700003076
:102A1000A800A9003D302300A00020082200AA0041
:102A20003F302300A10021082200AB002130230009
:102A3000A20022082200AC0043302300A300230898
:102A40002200AD008C31752493312530860004308E
:102A50008700403F2300A000413FA100423FA20069
:102A6000433FA300443FA400453FA500463FA600C6
:102A7000473FA70028003F082300A800280040087F
:102A80002300A900280041082300AA0028004208CA
:102A90002300AB000030AB1BFF30AC00AD00AE003C
:102AA000AF002808A0072908A13D2A08A23D2B084D
:102AB000A33D2C08A43D2D08A53D2E08A63D2F08BA
:102AC000A73D27082100AF00230026082100AE0003
:102AD000230025082100AD00230024082100AC00BC
:102AE000230023082100AB00230022082100AA00B4
:102AF000230021082100A900230020082100A800AC
:102B00002D30B0000430B10080316E2093312100AF
:102B1000AB1BBB2D2D308600043087002800200819
:102B200084000230850018302300A00016001A002F
:102B3000A00B962D280025082200D9002800260881
:102B40002200DA00280027082200DB0028002808DD
:102B50002200DC00280029082200DD0028002A08C5
:102B60002200DE0028002B082200DF0028002C08AD
:102B70002200E00008004B302200ED000030EE00A3
:102B8000FF30D900DA00DB00DC00DD00DE00DF0012
:102B9000E00008002100E8003E082000C2002100FB
:102BA0003F082000C300210040082000C40021008D
:102BB00041082000C500210042082000C600210075
:102BC00043082000C700210044082000C80021005D
:102BD00045082000C900E6302100C6004608200054
:102BE000CA0089319F219531200042082100DC0074
:102BF000200043082100DD00200044082100DE0001
:102C0000200045082100DF00200046082100E000E8
:102C1000200047082100E100200048082100E200D0
:102C2000200049082100E300680886000230870080
:102C300016004D3AC6001600C6040319862E680811
:102C4000023E860002308700403FD800413FD90055
:102C5000680886000230870016004A3AC60016004F
:102C6000C604031D482E5908803AC600803046022B
:102C7000031D3C2E3C305802031C432E21006608E5
:102C80006704031D482EFF302100D807FF30D93DCF
:102C900058082000B200210059082000B300890D17
:102CA000893B8909B400B5000030B9000130B80093
:102CB0005130B7008030B6009931F12195312000B4
:102CC00032082100C600200033082100C700200080
:102CD00034082100C800200035082100C900003058
:102CE000C91BFF30CA00CB00CC00CD004608DC0772
:102CF0004708DD3D4808DE3D4908DF3D4A08E03D24
:102D00004B08E13D4C08E23D4D08C82F6808023EE3
:102D1000860002308700403FD600413FD700680858
:102D2000043E860002308700403FDA00413FDB006E
:102D30006808063E860002308700403FD200413FCF
:102D4000D3005608FF3EF100FF30573DF200670800
:102D5000F4006608F3009A3155229531710821007C
:102D6000C6007208C7007308C8007408C9000030A4
:102D7000C91BFF30CA00CB00CC00CD004608DC07E1
:102D80004708DD3D4808DE3D4908DF3D4A08E03D93
:102D90004B08E13D4C08E23D4D08E33D0030F700B3
:102DA0000130F6005130F5008030F4000030C600EC
:102DB0004630C7000530C8000030C9000030CA00E6
:102DC0000030CB000030CC000030CD00DC3086007D
:102DD00000308700403FC607413FC73D423FC83DE6
:102DE000433FC93D443FCA3D453FCB3D463FCC3DB7
:102DF000473FCD3D4D082000C10021004C08200078
:102E0000C00021004B082000BF0021004A0820001C
:102E1000BE00210049082000BD0021004808200014
:102E2000BC00210047082000BB002100460820000C
:102E3000BA000030B9000030B8000030B7000030F0
:102E4000B6000030B5000930B4003A30B30080302D
:102E5000B2009031C520953120003208F8003308C7
:102E6000F900890D893B8909FA00FB0088312A2085
:102E7000953175082100D5007408D4005408520219
:102E8000E4005508533BE500E51F4A2F0730E407EF
:102E90000030E53D05305A065B04031D722F5708CC
:102EA000F2005608F1006708F4006608F300883164
:102EB00003209531210064081C3EC6000030653DAA
:102EC000C7004708803AC8007208803A4802031DCC
:102ED0006B2F71084602031C722F04302100DA00A8
:102EE0000030DB000730F3000030F40021005B0805
:102EF000F2005A08F10099318121953121006408CE
:102F00007107C6006508723DC7004608F93EC80053
:102F1000FF30473DC90048082000B20021004908A1
:102F20002000B300890D893B8909B400B500003049
:102F3000B9000130B8005130B7008030B600993187
:102F4000F1219531200032082100CA002000330809
:102F50002100CB00200034082100CC0020003508DF
:102F60002100CD000030CD1BFF30CE00CF00D000BF
:102F7000D1004A08DC074B08DD3D4C08DE3D4D081A
:102F8000DF3D4E08E03D4F08E13D5008E23D51086D
:102F9000E33D6808083E860002308700403FC600D7
:102FA000413FC7004608C8004708C9000030C91B98
:102FB000FF30CA00CB00CC00CD00CE00CF004808C7
:102FC000DC074908DD3D4A08DE3D4B08DF3D4C0883
:102FD000E03D4D08E13D4E08E23D4F08E33D5C0811
:102FE000BE005D08BF005E08C0005F08C100600849
:102FF000C2006108C3006208C4006308C50008007D
:1030000000340034003400348034DE34283400349A
:103010008034C8344D3400340034A734763400345E
:10302000003434349E34003480341234C7340034D5
:1030300080349F34EE34003400347E34173401344D
:1030400080345C34403401348034E93467340134F2
:103050000034C8349034013400345534B834013469
:103060001F341E341F341E341F341F341E341F34CB
:103070001E341F341F341D3447344D34543400344F
:0230800000341A
:103190000800203472082300DA007108D900080002
:1031A00072082300DE007108DD00080072082300A9
:1031B000DC007108DB00080072082300E0007108E1
:1031C000DF00080072082300E2007108E100080037
:1031D000640080010131890BE9280034200058087F
:1031E0000319F428013008000030080020005C08B2
:1031F0000319FC280130080000300800FC302100D1
:10320000990519088739703899009917080099317C
:103210002E2199319831FE2099319A3189220B174C
:103220008B170800F2009831F6209931003A031903
:10323000080072089C3183240800F400F301741C18
:1032400025297108F2007208F3070310F10D03102D
:10325000F40C7408031D1F297308080022008C0158
:103260008E013F3021008C003F308E0023008C0106
:103270008E013F3024008C003F308E0021009517D6
:103280000800F8000F307805F5000A30F6007608DF
:10329000F1007808F7000430F736890B4C297708DD
:1032A00099311D21750708000030F9000030F80041
:1032B0000030F7000030F6002000480803196629A6
:1032C0004808860087010030C03FC13FBE01BF01F2
:1032D000080023001908F0007C08A03E8600033097
:1032E0008700700881000130F0007008FC07403052
:1032F0007C020318FC010130F00070082000D807A0
:103300000800F501F601711C89297308F507740896
:10331000F63D0130F335F40D890B8A290130F23680
:10332000F10C890B8F2971087204031D832976081B
:10333000F2007508F10008002000580803199C29C4
:103340005908203E8600033087000108F10071080B
:10335000D7005908A03E8600033087000108F1001D
:103360007108F2000130F1007108D90740305902AC
:103370000318D9012100911201302000D802210048
:10338000911672080800FA000A30F1000030F200CD
:103390007A082000B200B3013208F3003308F400C9
:1033A0009B310C23993171082000B4007208B500DC
:1033B0000A30F1000030F2007A08B600B701360892
:1033C000F3003708F4009B31E123993171082000A4
:1033D000B8000330B835FF3E031DEA293835340400
:1033E00008000030FA000030F9000030F80000302A
:1033F000F7002000321C042A3608F7073708F83D8A
:103400003808F93D3908FA3D0130B635B70DB80D29
:10341000B90D890B052A0130B536B40CB30CB20CCA
:10342000890B0C2A3508340433043204031DF929AE
:103430007A08B5007908B4007808B3007708B200BC
:1034400008007C08203E86000330870081012300AD
:103450001D1D352A7C08203E86000330870081141C
:103460005E088A005D080A009A3123009D1C432AE9
:103470007C08203E86000330870001155C088A0026
:103480005B080A009A317C08203E860003308700E2
:1034900001080319522A23005A088A0059080A0011
:1034A0009A31080099316921080072088500710875
:1034B00084008435850D8435850D0030840798306F
:1034C000853D003FF600013FF700023FF800033F53
:1034D000F900730874040319802A7208803AF50011
:1034E00080307502031D762A02307102031C802A87
:1034F0008030F6075130F73D0130F83D0030F93D9E
:103500007908F4007808F3007708F2007608F100F3
:103510000800210091122130F1001A30F200983198
:10352000DC209A3121001112EE30F1001C30F20043
:103530009831E2209A31083023009F00D0309D005E
:1035400064309E0040309B0003309C00C830F10086
:103550001830F2009831D0209A31FC30F100073059
:10356000F2009831D6209A310030F1000830F20094
:103570009831CA202000D701DB01DA014030F30086
:103580007308DC00FC01D901D80121009116080064
:10359000F5007508033E8600870101082000B2008F
:1035A000B301B401B5017508023E86008701010828
:1035B000B600B701B801B9010830B635B70DB80D7E
:1035C000B90D890BDD2A750A860087010108BA004A
:1035D000BB01BC01BD011030BA35BB0DBC0DBD0D2A
:1035E000890BEC2A7508860087010108BD043A089A
:1035F000B6043B08B7043C08B8043D08B9043208D7
:103600003604F10033083704F20034083804F300BC
:1036100035083904F4000800F701F41F162BF309EC
:10362000F409F30A0319F40AF701F70AF21F1D2B34
:10363000F109F209F10A0319F20A71087204031977
:10364000442BF601F60AF21B2F2B0130F135F20D57
:10365000890B262B0130F5007508F607232B72081D
:103660007402031D352B71087302031C3B2B710878
:10367000F3027208F43B0130F236F10C890B3C2B5B
:103680000130F602031D2F2B770803194C2BF30989
:10369000F409F30A0319F40A7408F2007308F1003C
:1036A000080072308600003087000830F1000030DA
:1036B0001E00F10B582B2000321C6E2B3A08F2072B
:1036C0003B08F33D3C08F43D3D08F53D3E08F63D22
:1036D0003F08F73D4008F83D4108F93DBA35BB0DBC
:1036E000BC0DBD0DBE0DBF0DC00DC10DB936B80C62
:1036F000B70CB60CB50CB40CB30CB20C32083304D6
:10370000340435043604370438043904031D5B2BB4
:103710007208B2007308B3007408B4007508B500ED
:103720007608B6007708B7007808B8007908B900BD
:1037300008002100C2004208860001308700403F97
:10374000A800413FA900423FAA00433FAB00443FCD
:10375000AC00453FAD00463FAE00473FAF00200004
:103760004C082100B0000230B10080316E209B3146
:103770002100AB1FC22B4B302200ED000030EE00C9
:103780000030080020004C08103E86000230870000
:103790000030C03FC13F4C08123E86000230870017
:1037A0000030C03F0030C13FC23FC33F4C08163E0F
:1037B0008600023087003C30C03F9830C13F4C0843
:1037C0000800F701F21FEB2BF109F209F10A0319C6
:1037D000F20AF701F70AF41FF62BF309F409F30ACA
:1037E0000319F40A0130F5007508F706F801F9012C
:1037F000710872040319252CF601F60AF21B0A2C33
:103800000130F135F20D890B012C0130F5007508FE
:10381000F607FE2B0130F835F90D890B0B2C7208D9
:103820007402031D152C71087302031C1C2C7108F3
:10383000F3027208F43B78140130F236F10C890B74
:103840001D2C0130F602031D0A2C770803192D2CBC
:10385000F809F909F80A0319F90A7908F200780851
:10386000F1000800FB00F901FA017B0886008701DE
:10387000403F2000B200413FB300320884003308CB
:1038800085000008D03EB400FF3003180030B500BA
:10389000003035020A300319340203187E2C7B08ED
:1038A00086008701403FB200413FB30032088400E8
:1038B000330885000008B400B5017A08F2007908E1
:1038C000F1000A30F3000030F400993181219C317D
:1038D000200034087107B6003508723DB70036087D
:1038E000D03EF900FF30373DFA007B0886008701A3
:1038F0000130810741310318810A352C7A08F8001C
:103900007908F7000800F10020005C080319842CF6
:103910002100111AD62C71082000B2000430B236F2
:10392000890B8F2C3208B300B4017108B500B601C1
:10393000B50EB60EF030B60535080F39B604F030C6
:10394000B50533083504B70034083604B800370825
:103950007106B9003808BA003908413EBB00003092
:103960003A3DBC007C303B04BD0000303C04BE004E
:103970003D08023EBF0000303E3DC0000730C100A0
:10398000400DC00CBF0CC10BC02C01303F05C20064
:1039900001304206C30023001E0820004306FE3902
:1039A000430623009E0071089A00EB2C1112710847
:1039B0002000B2005B08A03E86000230870032087B
:1039C00081000130B2003208DB0740305B0203188F
:1039D000DB010130DC02210011160800403020001C
:1039E0005C020318602D5A08A03E86000230870052
:1039F0000108A0000430A036890BFB2C2008A10090
:103A0000A2015A08A03E8600023087000108A300E8
:103A1000A401A30EA40EF030A40523080F39A404BA
:103A2000F030A30521082304A50022082404A600E1
:103A30005A08A03E86000230870025080106A7002C
:103A40002608A8002708413EA9000030283DAA000A
:103A50007C302904AB0000302A04AC002B08023E65
:103A6000AD0000302C3DAE000730AF002E0DAE0C87
:103A7000AD0CAF0B362D01302D05B00001303006F6
:103A8000B10023001E0820003106FE393106230054
:103A90009E0020005A08A03E8600023087000108E0
:103AA00023009A0001302000A0002008DA074030EF
:103AB0005A020318DA010130A0002008DC070800D0
:103AC0002100111208002000CB012100A71F762D34
:103AD000A409A509A609A709A40A0319A50A031997
:103AE000A60A0319A70A2000CB01CB0A2100A31FB5
:103AF000842DA009A109A209A309A00A0319A10AFA
:103B00000319A20A0319A30A23082204210420048A
:103B10000319C22D2000CA01CA0A2100A31B9D2D32
:103B20000130A035A10DA20DA30D890B912D0130FF
:103B30002000C9004908CA078D2D2100230827024B
:103B4000031DAC2D22082602031DAC2D21082502E1
:103B5000031DAC2D20082402031CB62D2008A4024E
:103B60002108A53B2208A63B2308A73B0130A3362A
:103B7000A20CA10CA00C890BB72D01302000CA02A9
:103B8000031D9D2D20004B080319D22D2100A409EF
:103B9000A509A609A709A40A0319A50A0319A60AD3
:103BA0000319A70A21002708A3002608A200250858
:103BB000A1002408A00008002000C300BD01BE0130
:103BC000430886008701403FBA00413FBB003A08E6
:103BD00084003B08850012002D3A031DFC2D43088C
:103BE000860087010130810741310318810A0130C5
:103BF000BD000030BE00132E430886008701403F01
:103C0000BA00413FBB003A0884003B08850012001F
:103C10002B3A031D132E43088600870101308107CC
:103C200041310318810A43089C3132249D317808C0
:103C30002000C0007708BF004008F2003F08F100F4
:103C40001030F3000E30F400993181219D3172085B
:103C50002000C2007108C100430886008701403F70
:103C6000BA00413FBB003A0884003B0885001200BF
:103C70003A3A031D7C2E43088600870101308107F4
:103C800041310318810A43089C3132249D31780860
:103C90002000C0007708BF004008F2003F08F10094
:103CA0003C30F3000030F400993181219D317108DE
:103CB0002000C1077208C23D430886008701403FCB
:103CC000BA00413FBB003A0884003B08850012005F
:103CD0003A3A031D7C2E4308860087010130810794
:103CE00041310318810A43089C3132249D31770801
:103CF0002000C1077808C23D3D083E04031D852E03
:103D00004208B9004108B80008004109BA00420958
:103D1000BB00BA0A0319BB0A3A08B8003B08B9004D
:103D200008002000CB004B0886008701403FC500FB
:103D3000413FC60045088400460885000008C700CA
:103D4000C80144088600023087004708C03F480881
:103D5000C13F4708C9004808CA004D3049064A0417
:103D60000319D62E4A3049064A04031DC02E4B08BB
:103D7000860087010130810741310318810AC72E6F
:103D800044088600023087000030C03FC13F4B0826
:103D90009C3132249E3120004408023E86000230CD
:103DA00087007708C03F7808C13F182F4B0886006E
:103DB00087010130810741310318810A4B089C318A
:103DC00032249E3120004408023E860002308700E3
:103DD0007708C03F7808C13F4B0886008701013053
:103DE000810741310318810A4B089C3132249E31EE
:103DF00020004408043E8600023087007708C03F58
:103E00007808C13F4B0886008701013081074131A6
:103E10000318810A4B089C3132249E31200044084B
:103E2000063E8600023087007708C03F7808C13F11
:103E30004B0886008701403FC500413FC60045084A
:103E400084004608850012002F3A031D3D2F4B08C1
:103E5000860087010130810741310318810A4B0830
:103E60009D31DC2520004408083E86000230870092
:103E70003808C03F3908C13F08004408083E8600A2
:103E8000023087002030C03F1C30C13F0800F900DD
:103E9000710886008701403FF200413FF30072083D
:103EA00084007308850012003C3A031DA32F71089B
:103EB000860087010130810741310318810AFA0128
:103EC000FB01892F7B08803AF20080307202031DCB
:103ED0006B2F06307A0203189A2F7108860087012B
:103EE000403FF200413FF30072087A0784007308F4
:103EF0007B3D85000008F4007A087907F500750815
:103F0000860001308700740881000130FA07003014
:103F1000FB3D710886008701403FF200413FF300FE
:103F200072087A07840073087B3D850012003E3AD0
:103F3000031D622F7108860087010130810741311E
:103F40000318810AEE2FFA01FB01CD2F7B08803A7E
:103F5000F20080307202031DAF2F06307A02031880
:103F6000EE2F710886008701403FF200413FF300C9
:103F700072087A07840073087B3D85000008F4000E
:103F80007A087907F5007508860001308700740803
:103F900081000130FA070030FB3D7108860087017F
:103FA000403FF200413FF30072087A078400730833
:103FB0007B3D85000008F40020307404F5000030DB
:103FC000F60075089F3EF700FF30763DF8000030A0
:103FD00078021A3003197702031CA62F7108860095
:103FE00087017A08810741317B08813D7F317A085A
:103FF0007907F2007208860001308700810108000D
:020000040001F9
:04000E00FC3FFF3E76
:00000001FF
