:020000040000FA
:020000002428B2
:100008007E1480314E01161E0A280B2822280C1E49
:100018000E280F2822287A08031D132814281828C8
:1000280045018C01FA01FA0A0030F000F100803134
:10003800D0208031F901F90A7E01BF017E10090044
:100048002528F901FA017E1040012A2880318520EF
:1000580080317903031D31283228502880315320FC
:10006800803118307302003003197202031C3D28D6
:100078003E2832287E01940180315320803123307C
:100088007302853003197202031C4B284C28402840
:100098000B307E019400F90164002D2824284B01BF
:1000A8001C08F40074084001A0004B011D08F4006E
:1000B80074084001A1002008F400F5012108F600A9
:1000C800F7017608F700F60174087604F20075085F
:1000D8007704F300080040019801273092007E0160
:1000E800B8013F30B900BA013730BB003F30BC001F
:1000F8003F113E113D154E0116160B307E0194003E
:1001080008008031C120803180316F2080318031FA
:10011800A82080318031C920803180319A208031F7
:100128008031B62080310B178B170800013045014C
:1001380090008F019101BF308D008C014E0190100D
:10014800903045018E000800203051018D008F014C
:1001580091010230930090019201101CB428B52837
:10016800B128080040304B019F009D019C014E01C1
:100178008C1290304B019E0008004F0196019701A8
:10018800980199019A019B01080090304601960058
:100198000C3095009401080071084B019D0070080F
:0401A8009C000800AF
:020000040001F9
:0A000E00AE17FF3FEB06FF3FFF3F78
:00000001FF
